{
  "contractName": "Crowdsale",
  "abi": [
    {
      "constant": true,
      "inputs": [],
      "name": "rate",
      "outputs": [
        {
          "name": "",
          "type": "uint256"
        }
      ],
      "payable": false,
      "stateMutability": "view",
      "type": "function"
    },
    {
      "constant": true,
      "inputs": [],
      "name": "endTime",
      "outputs": [
        {
          "name": "",
          "type": "uint256"
        }
      ],
      "payable": false,
      "stateMutability": "view",
      "type": "function"
    },
    {
      "constant": true,
      "inputs": [],
      "name": "weiRaised",
      "outputs": [
        {
          "name": "",
          "type": "uint256"
        }
      ],
      "payable": false,
      "stateMutability": "view",
      "type": "function"
    },
    {
      "constant": true,
      "inputs": [],
      "name": "wallet",
      "outputs": [
        {
          "name": "",
          "type": "address"
        }
      ],
      "payable": false,
      "stateMutability": "view",
      "type": "function"
    },
    {
      "constant": true,
      "inputs": [],
      "name": "startTime",
      "outputs": [
        {
          "name": "",
          "type": "uint256"
        }
      ],
      "payable": false,
      "stateMutability": "view",
      "type": "function"
    },
    {
      "constant": true,
      "inputs": [],
      "name": "token",
      "outputs": [
        {
          "name": "",
          "type": "address"
        }
      ],
      "payable": false,
      "stateMutability": "view",
      "type": "function"
    },
    {
      "inputs": [
        {
          "name": "_startTime",
          "type": "uint256"
        },
        {
          "name": "_endTime",
          "type": "uint256"
        },
        {
          "name": "_rate",
          "type": "uint256"
        },
        {
          "name": "_wallet",
          "type": "address"
        }
      ],
      "payable": false,
      "stateMutability": "nonpayable",
      "type": "constructor"
    },
    {
      "payable": true,
      "stateMutability": "payable",
      "type": "fallback"
    },
    {
      "anonymous": false,
      "inputs": [
        {
          "indexed": true,
          "name": "purchaser",
          "type": "address"
        },
        {
          "indexed": true,
          "name": "beneficiary",
          "type": "address"
        },
        {
          "indexed": false,
          "name": "value",
          "type": "uint256"
        },
        {
          "indexed": false,
          "name": "amount",
          "type": "uint256"
        }
      ],
      "name": "TokenPurchase",
      "type": "event"
    },
    {
      "constant": false,
      "inputs": [
        {
          "name": "beneficiary",
          "type": "address"
        }
      ],
      "name": "buyTokens",
      "outputs": [],
      "payable": true,
      "stateMutability": "payable",
      "type": "function"
    },
    {
      "constant": true,
      "inputs": [],
      "name": "hasEnded",
      "outputs": [
        {
          "name": "",
          "type": "bool"
        }
      ],
      "payable": false,
      "stateMutability": "view",
      "type": "function"
    }
  ],
  "bytecode": "0x608060405234801561001057600080fd5b506040516080806132948339810180604052810190808051906020019092919080519060200190929190805190602001909291908051906020019092919050505042841015151561006057600080fd5b83831015151561006f57600080fd5b60008211151561007e57600080fd5b600073ffffffffffffffffffffffffffffffffffffffff168173ffffffffffffffffffffffffffffffffffffffff16141515156100ba57600080fd5b6100d161016f640100000000026401000000009004565b6000806101000a81548173ffffffffffffffffffffffffffffffffffffffff021916908373ffffffffffffffffffffffffffffffffffffffff16021790555083600181905550826002819055508160048190555080600360006101000a81548173ffffffffffffffffffffffffffffffffffffffff021916908373ffffffffffffffffffffffffffffffffffffffff160217905550505050506101ab565b600061017961019b565b604051809103906000f080158015610195573d6000803e3d6000fd5b50905090565b604051612add806107b783390190565b6105fd806101ba6000396000f30060806040526004361061008e576000357c0100000000000000000000000000000000000000000000000000000000900463ffffffff1680632c4e722e146100995780633197cbb6146100c45780634042b66f146100ef578063521eb2731461011a57806378e9792514610171578063ec8ac4d81461019c578063ecb70fb7146101d2578063fc0c546a14610201575b61009733610258565b005b3480156100a557600080fd5b506100ae61044d565b6040518082815260200191505060405180910390f35b3480156100d057600080fd5b506100d9610453565b6040518082815260200191505060405180910390f35b3480156100fb57600080fd5b50610104610459565b6040518082815260200191505060405180910390f35b34801561012657600080fd5b5061012f61045f565b604051808273ffffffffffffffffffffffffffffffffffffffff1673ffffffffffffffffffffffffffffffffffffffff16815260200191505060405180910390f35b34801561017d57600080fd5b50610186610485565b6040518082815260200191505060405180910390f35b6101d0600480360381019080803573ffffffffffffffffffffffffffffffffffffffff169060200190929190505050610258565b005b3480156101de57600080fd5b506101e761048b565b604051808215151515815260200191505060405180910390f35b34801561020d57600080fd5b50610216610497565b604051808273ffffffffffffffffffffffffffffffffffffffff1673ffffffffffffffffffffffffffffffffffffffff16815260200191505060405180910390f35b600080600073ffffffffffffffffffffffffffffffffffffffff168373ffffffffffffffffffffffffffffffffffffffff161415151561029757600080fd5b61029f6104bc565b15156102aa57600080fd5b3491506102b6826104ef565b90506102cd8260055461050d90919063ffffffff16565b6005819055506000809054906101000a900473ffffffffffffffffffffffffffffffffffffffff1673ffffffffffffffffffffffffffffffffffffffff1663a9059cbb84836040518363ffffffff167c0100000000000000000000000000000000000000000000000000000000028152600401808373ffffffffffffffffffffffffffffffffffffffff1673ffffffffffffffffffffffffffffffffffffffff16815260200182815260200192505050602060405180830381600087803b15801561039757600080fd5b505af11580156103ab573d6000803e3d6000fd5b505050506040513d60208110156103c157600080fd5b8101908080519060200190929190505050508273ffffffffffffffffffffffffffffffffffffffff163373ffffffffffffffffffffffffffffffffffffffff167f623b3804fa71d67900d064613da8f94b9617215ee90799290593e1745087ad188484604051808381526020018281526020019250505060405180910390a361044861052b565b505050565b60045481565b60025481565b60055481565b600360009054906101000a900473ffffffffffffffffffffffffffffffffffffffff1681565b60015481565b60006002544211905090565b6000809054906101000a900473ffffffffffffffffffffffffffffffffffffffff1681565b600080600060015442101580156104d557506002544211155b9150600034141590508180156104e85750805b9250505090565b60006105066004548361059690919063ffffffff16565b9050919050565b600080828401905083811015151561052157fe5b8091505092915050565b600360009054906101000a900473ffffffffffffffffffffffffffffffffffffffff1673ffffffffffffffffffffffffffffffffffffffff166108fc349081150290604051600060405180830381858888f19350505050158015610593573d6000803e3d6000fd5b50565b60008060008414156105ab57600091506105ca565b82840290508284828115156105bc57fe5b041415156105c657fe5b8091505b50929150505600a165627a7a723058206f8d45493f7cf11f5fc2cf11c82ab672d06d97075abc676fbf284de2b29526da002960806040526040805190810160405280600381526020017f302e3300000000000000000000000000000000000000000000000000000000008152506000908051906020019062000051929190620005cf565b506000600160006101000a81548160ff0219169083151502179055506000600560146101000a81548160ff0219169083151502179055506040805190810160405280600981526020017f546f6b656e20302e31000000000000000000000000000000000000000000000081525060069080519060200190620000d5929190620005cf565b50602060405190810160405280600081525060079080519060200190620000fe929190620005cf565b5060206040519081016040528060008152506008908051906020019062000127929190620005cf565b506000600960006101000a81548160ff021916908360ff1602179055506000600960016101000a81548160ff0219169083151502179055506000600960026101000a81548160ff0219169083151502179055506040805190810160405280601381526020017f53777974636820456e6572677920546f6b656e00000000000000000000000000815250600a9080519060200190620001c7929190620005cf565b506040805190810160405280600381526020017f5345540000000000000000000000000000000000000000000000000000000000815250600b908051906020019062000215929190620005cf565b506012600c60006101000a81548160ff021916908360ff1602179055506000600d55600c60009054906101000a900460ff1660ff16600a0a63d98e948002600e553480156200026357600080fd5b50600a8054600181600116156101000203166002900480601f016020809104026020016040519081016040528092919081815260200182805460018160011615610100020316600290048015620002fe5780601f10620002d257610100808354040283529160200191620002fe565b820191906000526020600020905b815481529060010190602001808311620002e057829003601f168201915b5050505050600b8054600181600116156101000203166002900480601f0160208091040260200160405190810160405280929190818152602001828054600181600116156101000203166002900480156200039d5780601f1062000371576101008083540402835291602001916200039d565b820191906000526020600020905b8154815290600101906020018083116200037f57829003601f168201915b5050505050600c60009054906101000a900460ff1633600560006101000a81548173ffffffffffffffffffffffffffffffffffffffff021916908373ffffffffffffffffffffffffffffffffffffffff1602179055506000835111801562000406575060008251115b15156200041257600080fd5b82600790805190602001906200042a929190620005cf565b50816008908051906020019062000443929190620005cf565b5080600960006101000a81548160ff021916908360ff16021790555050505033600560006101000a81548173ffffffffffffffffffffffffffffffffffffffff021916908373ffffffffffffffffffffffffffffffffffffffff160217905550600d54600381905550600d54600260003373ffffffffffffffffffffffffffffffffffffffff1673ffffffffffffffffffffffffffffffffffffffff16815260200190815260200160002081905550600560009054906101000a900473ffffffffffffffffffffffffffffffffffffffff1673ffffffffffffffffffffffffffffffffffffffff1660007fddf252ad1be2c89b69c2b068fc378daa952ba7f163c4a11628f55a4df523b3ef600d546040518082815260200191505060405180910390a37ff4cd1f8571e8d9c97ffcb81558807ab73f9803d54de5da6a0420593c82a4a9f030604051808273ffffffffffffffffffffffffffffffffffffffff1673ffffffffffffffffffffffffffffffffffffffff16815260200191505060405180910390a16200067e565b828054600181600116156101000203166002900490600052602060002090601f016020900481019282601f106200061257805160ff191683800117855562000643565b8280016001018555821562000643579182015b828111156200064257825182559160200191906001019062000625565b5b50905062000652919062000656565b5090565b6200067b91905b80821115620006775760008160009055506001016200065d565b5090565b90565b61244f806200068e6000396000f300608060405260043610610154576000357c0100000000000000000000000000000000000000000000000000000000900463ffffffff16806305d2035b1461015957806306fdde0314610188578063095ea7b3146102185780631608f18f1461027d57806318160ddd146102ac57806323b872dd146102d7578063313ce5671461035c578063378dc3dc1461038d5780633d0c4924146103b857806340c10f19146103e35780635005ba471461044857806354fd4d50146104775780635a3b7e4214610507578063661884631461059757806370a08231146105fc5780637d64bcb414610653578063867904b4146106825780638da5cb5b146106cf57806395d89b4114610726578063a24835d1146107b6578063a9059cbb14610803578063bef97c8714610868578063d73dd62314610897578063dd62ed3e146108fc578063decfe0d414610973578063f2fde38b146109a2575b600080fd5b34801561016557600080fd5b5061016e6109e5565b604051808215151515815260200191505060405180910390f35b34801561019457600080fd5b5061019d6109f8565b6040518080602001828103825283818151815260200191508051906020019080838360005b838110156101dd5780820151818401526020810190506101c2565b50505050905090810190601f16801561020a5780820380516001836020036101000a031916815260200191505b509250505060405180910390f35b34801561022457600080fd5b50610263600480360381019080803573ffffffffffffffffffffffffffffffffffffffff16906020019092919080359060200190929190505050610a96565b604051808215151515815260200191505060405180910390f35b34801561028957600080fd5b506102aa600480360381019080803515159060200190929190505050610b88565b005b3480156102b857600080fd5b506102c1610c02565b6040518082815260200191505060405180910390f35b3480156102e357600080fd5b50610342600480360381019080803573ffffffffffffffffffffffffffffffffffffffff169060200190929190803573ffffffffffffffffffffffffffffffffffffffff16906020019092919080359060200190929190505050610c0c565b604051808215151515815260200191505060405180910390f35b34801561036857600080fd5b50610371610c3a565b604051808260ff1660ff16815260200191505060405180910390f35b34801561039957600080fd5b506103a2610c4d565b6040518082815260200191505060405180910390f35b3480156103c457600080fd5b506103cd610c53565b6040518082815260200191505060405180910390f35b3480156103ef57600080fd5b5061042e600480360381019080803573ffffffffffffffffffffffffffffffffffffffff16906020019092919080359060200190929190505050610c59565b604051808215151515815260200191505060405180910390f35b34801561045457600080fd5b50610475600480360381019080803515159060200190929190505050610d29565b005b34801561048357600080fd5b5061048c610da2565b6040518080602001828103825283818151815260200191508051906020019080838360005b838110156104cc5780820151818401526020810190506104b1565b50505050905090810190601f1680156104f95780820380516001836020036101000a031916815260200191505b509250505060405180910390f35b34801561051357600080fd5b5061051c610e40565b6040518080602001828103825283818151815260200191508051906020019080838360005b8381101561055c578082015181840152602081019050610541565b50505050905090810190601f1680156105895780820380516001836020036101000a031916815260200191505b509250505060405180910390f35b3480156105a357600080fd5b506105e2600480360381019080803573ffffffffffffffffffffffffffffffffffffffff16906020019092919080359060200190929190505050610ede565b604051808215151515815260200191505060405180910390f35b34801561060857600080fd5b5061063d600480360381019080803573ffffffffffffffffffffffffffffffffffffffff16906020019092919050505061116f565b6040518082815260200191505060405180910390f35b34801561065f57600080fd5b506106686111b8565b604051808215151515815260200191505060405180910390f35b34801561068e57600080fd5b506106cd600480360381019080803573ffffffffffffffffffffffffffffffffffffffff1690602001909291908035906020019092919050505061123f565b005b3480156106db57600080fd5b506106e4611468565b604051808273ffffffffffffffffffffffffffffffffffffffff1673ffffffffffffffffffffffffffffffffffffffff16815260200191505060405180910390f35b34801561073257600080fd5b5061073b61148e565b6040518080602001828103825283818151815260200191508051906020019080838360005b8381101561077b578082015181840152602081019050610760565b50505050905090810190601f1680156107a85780820380516001836020036101000a031916815260200191505b509250505060405180910390f35b3480156107c257600080fd5b50610801600480360381019080803573ffffffffffffffffffffffffffffffffffffffff1690602001909291908035906020019092919050505061152c565b005b34801561080f57600080fd5b5061084e600480360381019080803573ffffffffffffffffffffffffffffffffffffffff1690602001909291908035906020019092919050505061172c565b604051808215151515815260200191505060405180910390f35b34801561087457600080fd5b5061087d611758565b604051808215151515815260200191505060405180910390f35b3480156108a357600080fd5b506108e2600480360381019080803573ffffffffffffffffffffffffffffffffffffffff1690602001909291908035906020019092919050505061176b565b604051808215151515815260200191505060405180910390f35b34801561090857600080fd5b5061095d600480360381019080803573ffffffffffffffffffffffffffffffffffffffff169060200190929190803573ffffffffffffffffffffffffffffffffffffffff169060200190929190505050611967565b6040518082815260200191505060405180910390f35b34801561097f57600080fd5b506109886119ee565b604051808215151515815260200191505060405180910390f35b3480156109ae57600080fd5b506109e3600480360381019080803573ffffffffffffffffffffffffffffffffffffffff169060200190929190505050611a01565b005b600560149054906101000a900460ff1681565b600a8054600181600116156101000203166002900480601f016020809104026020016040519081016040528092919081815260200182805460018160011615610100020316600290048015610a8e5780601f10610a6357610100808354040283529160200191610a8e565b820191906000526020600020905b815481529060010190602001808311610a7157829003601f168201915b505050505081565b600081600460003373ffffffffffffffffffffffffffffffffffffffff1673ffffffffffffffffffffffffffffffffffffffff16815260200190815260200160002060008573ffffffffffffffffffffffffffffffffffffffff1673ffffffffffffffffffffffffffffffffffffffff168152602001908152602001600020819055508273ffffffffffffffffffffffffffffffffffffffff163373ffffffffffffffffffffffffffffffffffffffff167f8c5be1e5ebec7d5bd14f71427d1e84f3dd0314c0f7b2291e5b200ac8c7c3b925846040518082815260200191505060405180910390a36001905092915050565b600560009054906101000a900473ffffffffffffffffffffffffffffffffffffffff1673ffffffffffffffffffffffffffffffffffffffff163373ffffffffffffffffffffffffffffffffffffffff16141515610be457600080fd5b8015600960016101000a81548160ff02191690831515021790555050565b6000600354905090565b6000600960019054906101000a900460ff161515610c2657fe5b610c31848484611b59565b90509392505050565b600c60009054906101000a900460ff1681565b600d5481565b600e5481565b600080600960019054906101000a900460ff161515610c7457fe5b600560009054906101000a900473ffffffffffffffffffffffffffffffffffffffff1673ffffffffffffffffffffffffffffffffffffffff163373ffffffffffffffffffffffffffffffffffffffff16141515610cd057600080fd5b600560149054906101000a900460ff16151515610cec57600080fd5b610cf4610c02565b9050600e54610d0c8483611f1890919063ffffffff16565b11151515610d1657fe5b610d208484611f36565b91505092915050565b600560009054906101000a900473ffffffffffffffffffffffffffffffffffffffff1673ffffffffffffffffffffffffffffffffffffffff163373ffffffffffffffffffffffffffffffffffffffff16141515610d8557600080fd5b80600960026101000a81548160ff02191690831515021790555050565b60008054600181600116156101000203166002900480601f016020809104026020016040519081016040528092919081815260200182805460018160011615610100020316600290048015610e385780601f10610e0d57610100808354040283529160200191610e38565b820191906000526020600020905b815481529060010190602001808311610e1b57829003601f168201915b505050505081565b60068054600181600116156101000203166002900480601f016020809104026020016040519081016040528092919081815260200182805460018160011615610100020316600290048015610ed65780601f10610eab57610100808354040283529160200191610ed6565b820191906000526020600020905b815481529060010190602001808311610eb957829003601f168201915b505050505081565b600080600460003373ffffffffffffffffffffffffffffffffffffffff1673ffffffffffffffffffffffffffffffffffffffff16815260200190815260200160002060008573ffffffffffffffffffffffffffffffffffffffff1673ffffffffffffffffffffffffffffffffffffffff16815260200190815260200160002054905080831115610fef576000600460003373ffffffffffffffffffffffffffffffffffffffff1673ffffffffffffffffffffffffffffffffffffffff16815260200190815260200160002060008673ffffffffffffffffffffffffffffffffffffffff1673ffffffffffffffffffffffffffffffffffffffff16815260200190815260200160002081905550611083565b611002838261211e90919063ffffffff16565b600460003373ffffffffffffffffffffffffffffffffffffffff1673ffffffffffffffffffffffffffffffffffffffff16815260200190815260200160002060008673ffffffffffffffffffffffffffffffffffffffff1673ffffffffffffffffffffffffffffffffffffffff168152602001908152602001600020819055505b8373ffffffffffffffffffffffffffffffffffffffff163373ffffffffffffffffffffffffffffffffffffffff167f8c5be1e5ebec7d5bd14f71427d1e84f3dd0314c0f7b2291e5b200ac8c7c3b925600460003373ffffffffffffffffffffffffffffffffffffffff1673ffffffffffffffffffffffffffffffffffffffff16815260200190815260200160002060008873ffffffffffffffffffffffffffffffffffffffff1673ffffffffffffffffffffffffffffffffffffffff168152602001908152602001600020546040518082815260200191505060405180910390a3600191505092915050565b6000600260008373ffffffffffffffffffffffffffffffffffffffff1673ffffffffffffffffffffffffffffffffffffffff168152602001908152602001600020549050919050565b6000600560009054906101000a900473ffffffffffffffffffffffffffffffffffffffff1673ffffffffffffffffffffffffffffffffffffffff163373ffffffffffffffffffffffffffffffffffffffff1614151561121657600080fd5b600560149054906101000a900460ff1615151561123257600080fd5b61123a612137565b905090565b600960019054906101000a900460ff16151561125757fe5b600560009054906101000a900473ffffffffffffffffffffffffffffffffffffffff1673ffffffffffffffffffffffffffffffffffffffff163373ffffffffffffffffffffffffffffffffffffffff161415156112b357600080fd5b8160008173ffffffffffffffffffffffffffffffffffffffff16141515156112da57600080fd5b823073ffffffffffffffffffffffffffffffffffffffff168173ffffffffffffffffffffffffffffffffffffffff161415151561131657600080fd5b61132b83600354611f1890919063ffffffff16565b60038190555061138383600260008773ffffffffffffffffffffffffffffffffffffffff1673ffffffffffffffffffffffffffffffffffffffff16815260200190815260200160002054611f1890919063ffffffff16565b600260008673ffffffffffffffffffffffffffffffffffffffff1673ffffffffffffffffffffffffffffffffffffffff168152602001908152602001600020819055507f9386c90217c323f58030f9dadcbc938f807a940f4ff41cd4cead9562f5da7dc3836040518082815260200191505060405180910390a18373ffffffffffffffffffffffffffffffffffffffff163073ffffffffffffffffffffffffffffffffffffffff167fddf252ad1be2c89b69c2b068fc378daa952ba7f163c4a11628f55a4df523b3ef856040518082815260200191505060405180910390a350505050565b600560009054906101000a900473ffffffffffffffffffffffffffffffffffffffff1681565b600b8054600181600116156101000203166002900480601f0160208091040260200160405190810160405280929190818152602001828054600181600116156101000203166002900480156115245780601f106114f957610100808354040283529160200191611524565b820191906000526020600020905b81548152906001019060200180831161150757829003601f168201915b505050505081565b600960019054906101000a900460ff16151561154457fe5b600960029054906101000a900460ff16151561155f57600080fd5b8173ffffffffffffffffffffffffffffffffffffffff163373ffffffffffffffffffffffffffffffffffffffff1614806115e65750600560009054906101000a900473ffffffffffffffffffffffffffffffffffffffff1673ffffffffffffffffffffffffffffffffffffffff163373ffffffffffffffffffffffffffffffffffffffff16145b15156115f157600080fd5b61164381600260008573ffffffffffffffffffffffffffffffffffffffff1673ffffffffffffffffffffffffffffffffffffffff1681526020019081526020016000205461211e90919063ffffffff16565b600260008473ffffffffffffffffffffffffffffffffffffffff1673ffffffffffffffffffffffffffffffffffffffff1681526020019081526020016000208190555061169b8160035461211e90919063ffffffff16565b6003819055507f9a1b418bc061a5d80270261562e6986a35d995f8051145f277be16103abd3453816040518082815260200191505060405180910390a160008273ffffffffffffffffffffffffffffffffffffffff167fddf252ad1be2c89b69c2b068fc378daa952ba7f163c4a11628f55a4df523b3ef836040518082815260200191505060405180910390a35050565b6000600960019054906101000a900460ff16151561174657fe5b61175083836121ff565b905092915050565b600960019054906101000a900460ff1681565b60006117fc82600460003373ffffffffffffffffffffffffffffffffffffffff1673ffffffffffffffffffffffffffffffffffffffff16815260200190815260200160002060008673ffffffffffffffffffffffffffffffffffffffff1673ffffffffffffffffffffffffffffffffffffffff16815260200190815260200160002054611f1890919063ffffffff16565b600460003373ffffffffffffffffffffffffffffffffffffffff1673ffffffffffffffffffffffffffffffffffffffff16815260200190815260200160002060008573ffffffffffffffffffffffffffffffffffffffff1673ffffffffffffffffffffffffffffffffffffffff168152602001908152602001600020819055508273ffffffffffffffffffffffffffffffffffffffff163373ffffffffffffffffffffffffffffffffffffffff167f8c5be1e5ebec7d5bd14f71427d1e84f3dd0314c0f7b2291e5b200ac8c7c3b925600460003373ffffffffffffffffffffffffffffffffffffffff1673ffffffffffffffffffffffffffffffffffffffff16815260200190815260200160002060008773ffffffffffffffffffffffffffffffffffffffff1673ffffffffffffffffffffffffffffffffffffffff168152602001908152602001600020546040518082815260200191505060405180910390a36001905092915050565b6000600460008473ffffffffffffffffffffffffffffffffffffffff1673ffffffffffffffffffffffffffffffffffffffff16815260200190815260200160002060008373ffffffffffffffffffffffffffffffffffffffff1673ffffffffffffffffffffffffffffffffffffffff16815260200190815260200160002054905092915050565b600960029054906101000a900460ff1681565b600560009054906101000a900473ffffffffffffffffffffffffffffffffffffffff1673ffffffffffffffffffffffffffffffffffffffff163373ffffffffffffffffffffffffffffffffffffffff16141515611a5d57600080fd5b600073ffffffffffffffffffffffffffffffffffffffff168173ffffffffffffffffffffffffffffffffffffffff1614151515611a9957600080fd5b8073ffffffffffffffffffffffffffffffffffffffff16600560009054906101000a900473ffffffffffffffffffffffffffffffffffffffff1673ffffffffffffffffffffffffffffffffffffffff167f8be0079c531659141344cd1fd0a4f28419497f9722a3daafe3b4186f6b6457e060405160405180910390a380600560006101000a81548173ffffffffffffffffffffffffffffffffffffffff021916908373ffffffffffffffffffffffffffffffffffffffff16021790555050565b60008073ffffffffffffffffffffffffffffffffffffffff168373ffffffffffffffffffffffffffffffffffffffff1614151515611b9657600080fd5b600260008573ffffffffffffffffffffffffffffffffffffffff1673ffffffffffffffffffffffffffffffffffffffff168152602001908152602001600020548211151515611be457600080fd5b600460008573ffffffffffffffffffffffffffffffffffffffff1673ffffffffffffffffffffffffffffffffffffffff16815260200190815260200160002060003373ffffffffffffffffffffffffffffffffffffffff1673ffffffffffffffffffffffffffffffffffffffff168152602001908152602001600020548211151515611c6f57600080fd5b611cc182600260008773ffffffffffffffffffffffffffffffffffffffff1673ffffffffffffffffffffffffffffffffffffffff1681526020019081526020016000205461211e90919063ffffffff16565b600260008673ffffffffffffffffffffffffffffffffffffffff1673ffffffffffffffffffffffffffffffffffffffff16815260200190815260200160002081905550611d5682600260008673ffffffffffffffffffffffffffffffffffffffff1673ffffffffffffffffffffffffffffffffffffffff16815260200190815260200160002054611f1890919063ffffffff16565b600260008573ffffffffffffffffffffffffffffffffffffffff1673ffffffffffffffffffffffffffffffffffffffff16815260200190815260200160002081905550611e2882600460008773ffffffffffffffffffffffffffffffffffffffff1673ffffffffffffffffffffffffffffffffffffffff16815260200190815260200160002060003373ffffffffffffffffffffffffffffffffffffffff1673ffffffffffffffffffffffffffffffffffffffff1681526020019081526020016000205461211e90919063ffffffff16565b600460008673ffffffffffffffffffffffffffffffffffffffff1673ffffffffffffffffffffffffffffffffffffffff16815260200190815260200160002060003373ffffffffffffffffffffffffffffffffffffffff1673ffffffffffffffffffffffffffffffffffffffff168152602001908152602001600020819055508273ffffffffffffffffffffffffffffffffffffffff168473ffffffffffffffffffffffffffffffffffffffff167fddf252ad1be2c89b69c2b068fc378daa952ba7f163c4a11628f55a4df523b3ef846040518082815260200191505060405180910390a3600190509392505050565b6000808284019050838110151515611f2c57fe5b8091505092915050565b6000600560009054906101000a900473ffffffffffffffffffffffffffffffffffffffff1673ffffffffffffffffffffffffffffffffffffffff163373ffffffffffffffffffffffffffffffffffffffff16141515611f9457600080fd5b600560149054906101000a900460ff16151515611fb057600080fd5b611fc582600354611f1890919063ffffffff16565b60038190555061201d82600260008673ffffffffffffffffffffffffffffffffffffffff1673ffffffffffffffffffffffffffffffffffffffff16815260200190815260200160002054611f1890919063ffffffff16565b600260008573ffffffffffffffffffffffffffffffffffffffff1673ffffffffffffffffffffffffffffffffffffffff168152602001908152602001600020819055508273ffffffffffffffffffffffffffffffffffffffff167f0f6798a560793a54c3bcfe86a93cde1e73087d944c0ea20544137d4121396885836040518082815260200191505060405180910390a28273ffffffffffffffffffffffffffffffffffffffff16600073ffffffffffffffffffffffffffffffffffffffff167fddf252ad1be2c89b69c2b068fc378daa952ba7f163c4a11628f55a4df523b3ef846040518082815260200191505060405180910390a36001905092915050565b600082821115151561212c57fe5b818303905092915050565b6000600560009054906101000a900473ffffffffffffffffffffffffffffffffffffffff1673ffffffffffffffffffffffffffffffffffffffff163373ffffffffffffffffffffffffffffffffffffffff1614151561219557600080fd5b600560149054906101000a900460ff161515156121b157600080fd5b6001600560146101000a81548160ff0219169083151502179055507fae5184fba832cb2b1f702aca6117b8d265eaf03ad33eb133f19dde0f5920fa0860405160405180910390a16001905090565b60008073ffffffffffffffffffffffffffffffffffffffff168373ffffffffffffffffffffffffffffffffffffffff161415151561223c57600080fd5b600260003373ffffffffffffffffffffffffffffffffffffffff1673ffffffffffffffffffffffffffffffffffffffff16815260200190815260200160002054821115151561228a57600080fd5b6122dc82600260003373ffffffffffffffffffffffffffffffffffffffff1673ffffffffffffffffffffffffffffffffffffffff1681526020019081526020016000205461211e90919063ffffffff16565b600260003373ffffffffffffffffffffffffffffffffffffffff1673ffffffffffffffffffffffffffffffffffffffff1681526020019081526020016000208190555061237182600260008673ffffffffffffffffffffffffffffffffffffffff1673ffffffffffffffffffffffffffffffffffffffff16815260200190815260200160002054611f1890919063ffffffff16565b600260008573ffffffffffffffffffffffffffffffffffffffff1673ffffffffffffffffffffffffffffffffffffffff168152602001908152602001600020819055508273ffffffffffffffffffffffffffffffffffffffff163373ffffffffffffffffffffffffffffffffffffffff167fddf252ad1be2c89b69c2b068fc378daa952ba7f163c4a11628f55a4df523b3ef846040518082815260200191505060405180910390a360019050929150505600a165627a7a723058207645901420f50760f28d57f785ba1885a2f3b23ddfa8b2b8380b115480a2ae050029",
  "source": "pragma solidity ^0.4.18;\n\nimport \"../SwytchToken.sol\";\nimport \"zeppelin-solidity/contracts/math/SafeMath.sol\";\n\n/**\n * @title Crowdsale\n * @dev Crowdsale is a base contract for managing a token crowdsale.\n * Crowdsales have a start and end timestamps, where investors can make\n * token purchases and the crowdsale will assign them tokens based\n * on a token per ETH rate. Funds collected are forwarded to a wallet\n * as they arrive.\n */\ncontract Crowdsale {\n    using SafeMath for uint256;\n\n    // The token being sold\n    SwytchToken public token;\n\n    // start and end timestamps where investments are allowed (both inclusive)\n    uint256 public startTime;\n    uint256 public endTime;\n\n    // address where funds are collected\n    address public wallet;\n\n    // how many token units a buyer gets per wei\n    uint256 public rate;\n\n    // amount of raised money in wei\n    uint256 public weiRaised;\n\n    /**\n     * event for token purchase logging\n     * @param purchaser who paid for the tokens\n     * @param beneficiary who got the tokens\n     * @param value weis paid for purchase\n     * @param amount amount of tokens purchased\n     */\n    event TokenPurchase(address indexed purchaser, address indexed beneficiary, uint256 value, uint256 amount);\n\n\n    function Crowdsale(uint256 _startTime, uint256 _endTime, uint256 _rate, address _wallet) public {\n        require(_startTime >= now);\n        require(_endTime >= _startTime);\n        require(_rate > 0);\n        require(_wallet != address(0));\n\n        token = createTokenContract();\n        startTime = _startTime;\n        endTime = _endTime;\n        rate = _rate;\n        wallet = _wallet;\n    }\n\n    // fallback function can be used to buy tokens\n    function () external payable {\n        buyTokens(msg.sender);\n    }\n\n    // low level token purchase function\n    function buyTokens(address beneficiary) public payable {\n        require(beneficiary != address(0));\n        require(validPurchase());\n\n        uint256 weiAmount = msg.value;\n\n        // calculate token amount to be created\n        uint256 tokens = getTokenAmount(weiAmount);\n\n        // update state\n        weiRaised = weiRaised.add(weiAmount);\n\n        token.transfer(beneficiary, tokens);\n        TokenPurchase(msg.sender, beneficiary, weiAmount, tokens);\n\n        forwardFunds();\n    }\n\n    // @return true if crowdsale event has ended\n    function hasEnded() public view returns (bool) {\n        return now > endTime;\n    }\n\n    // creates the token to be sold.\n    // override this method to have crowdsale of a specific mintable token.\n    function createTokenContract() internal returns (SwytchToken) {\n        return new SwytchToken();\n    }\n\n    // Override this method to have a way to add business logic to your crowdsale when buying\n    function getTokenAmount(uint256 weiAmount) internal view returns(uint256) {\n        return weiAmount.mul(rate);\n    }\n\n    // send ether to the fund collection wallet\n    // override to create custom fund forwarding mechanisms\n    function forwardFunds() internal {\n        wallet.transfer(msg.value);\n    }\n\n    // @return true if the transaction can buy tokens\n    function validPurchase() internal view returns (bool) {\n        bool withinPeriod = now >= startTime && now <= endTime;\n        bool nonZeroPurchase = msg.value != 0;\n        return withinPeriod && nonZeroPurchase;\n    }\n\n}\n",
  "sourcePath": "/Users/ghostmac/WebstormProjects/swytch/swytch-smart-contracts/contracts/crowdsale/Crowdsale.sol",
  "compiler": {
    "name": "solc",
    "version": "0.4.23+commit.124ca40d.Emscripten.clang"
  },
  "schemaVersion": "2.0.0",
  "updatedAt": "2018-05-22T19:11:30.814Z"
}