{
  "contractName": "SmartTokenController",
  "abi": [
    {
      "constant": false,
      "inputs": [
        {
          "name": "_newOwner",
          "type": "address"
        }
      ],
      "name": "transferTokenOwnership",
      "outputs": [],
      "payable": false,
      "stateMutability": "nonpayable",
      "type": "function"
    },
    {
      "constant": false,
      "inputs": [
        {
          "name": "_to",
          "type": "address"
        },
        {
          "name": "_amount",
          "type": "uint256"
        }
      ],
      "name": "mintToken",
      "outputs": [],
      "payable": false,
      "stateMutability": "nonpayable",
      "type": "function"
    },
    {
      "constant": true,
      "inputs": [],
      "name": "owner",
      "outputs": [
        {
          "name": "",
          "type": "address"
        }
      ],
      "payable": false,
      "stateMutability": "view",
      "type": "function"
    },
    {
      "constant": false,
      "inputs": [
        {
          "name": "_to",
          "type": "address"
        },
        {
          "name": "_amount",
          "type": "uint256"
        }
      ],
      "name": "withdrawFromToken",
      "outputs": [],
      "payable": false,
      "stateMutability": "nonpayable",
      "type": "function"
    },
    {
      "constant": false,
      "inputs": [],
      "name": "unmintedTokens",
      "outputs": [
        {
          "name": "",
          "type": "uint256"
        }
      ],
      "payable": false,
      "stateMutability": "nonpayable",
      "type": "function"
    },
    {
      "constant": false,
      "inputs": [
        {
          "name": "newOwner",
          "type": "address"
        }
      ],
      "name": "transferOwnership",
      "outputs": [],
      "payable": false,
      "stateMutability": "nonpayable",
      "type": "function"
    },
    {
      "constant": true,
      "inputs": [],
      "name": "token",
      "outputs": [
        {
          "name": "",
          "type": "address"
        }
      ],
      "payable": false,
      "stateMutability": "view",
      "type": "function"
    },
    {
      "inputs": [],
      "payable": false,
      "stateMutability": "nonpayable",
      "type": "constructor"
    },
    {
      "anonymous": false,
      "inputs": [
        {
          "indexed": true,
          "name": "previousOwner",
          "type": "address"
        },
        {
          "indexed": true,
          "name": "newOwner",
          "type": "address"
        }
      ],
      "name": "OwnershipTransferred",
      "type": "event"
    }
  ],
  "bytecode": "0x6060604052341561000f57600080fd5b336000806101000a81548173ffffffffffffffffffffffffffffffffffffffff021916908373ffffffffffffffffffffffffffffffffffffffff160217905550336000806101000a81548173ffffffffffffffffffffffffffffffffffffffff021916908373ffffffffffffffffffffffffffffffffffffffff1602179055506100976100f2565b604051809103906000f08015156100ad57600080fd5b600160006101000a81548173ffffffffffffffffffffffffffffffffffffffff021916908373ffffffffffffffffffffffffffffffffffffffff160217905550610102565b604051612a1d80610a3283390190565b610921806101116000396000f300606060405260043610610083576000357c0100000000000000000000000000000000000000000000000000000000900463ffffffff16806321e6b53d1461008857806379c65068146100c15780638da5cb5b146101035780639ba8e37d14610158578063e21827a11461019a578063f2fde38b146101c3578063fc0c546a146101fc575b600080fd5b341561009357600080fd5b6100bf600480803573ffffffffffffffffffffffffffffffffffffffff16906020019091905050610251565b005b34156100cc57600080fd5b610101600480803573ffffffffffffffffffffffffffffffffffffffff16906020019091908035906020019091905050610324565b005b341561010e57600080fd5b610116610473565b604051808273ffffffffffffffffffffffffffffffffffffffff1673ffffffffffffffffffffffffffffffffffffffff16815260200191505060405180910390f35b341561016357600080fd5b610198600480803573ffffffffffffffffffffffffffffffffffffffff16906020019091908035906020019091905050610498565b005b34156101a557600080fd5b6101ad6105e7565b6040518082815260200191505060405180910390f35b34156101ce57600080fd5b6101fa600480803573ffffffffffffffffffffffffffffffffffffffff16906020019091905050610761565b005b341561020757600080fd5b61020f6108b6565b604051808273ffffffffffffffffffffffffffffffffffffffff1673ffffffffffffffffffffffffffffffffffffffff16815260200191505060405180910390f35b600160009054906101000a900473ffffffffffffffffffffffffffffffffffffffff1673ffffffffffffffffffffffffffffffffffffffff1663f2fde38b826040518263ffffffff167c0100000000000000000000000000000000000000000000000000000000028152600401808273ffffffffffffffffffffffffffffffffffffffff1673ffffffffffffffffffffffffffffffffffffffff168152602001915050600060405180830381600087803b151561030d57600080fd5b6102c65a03f1151561031e57600080fd5b50505050565b6000809054906101000a900473ffffffffffffffffffffffffffffffffffffffff1673ffffffffffffffffffffffffffffffffffffffff163373ffffffffffffffffffffffffffffffffffffffff1614151561037f57600080fd5b600160009054906101000a900473ffffffffffffffffffffffffffffffffffffffff1673ffffffffffffffffffffffffffffffffffffffff166340c10f1983836000604051602001526040518363ffffffff167c0100000000000000000000000000000000000000000000000000000000028152600401808373ffffffffffffffffffffffffffffffffffffffff1673ffffffffffffffffffffffffffffffffffffffff16815260200182815260200192505050602060405180830381600087803b151561044c57600080fd5b6102c65a03f1151561045d57600080fd5b50505060405180519050151561046f57fe5b5050565b6000809054906101000a900473ffffffffffffffffffffffffffffffffffffffff1681565b6000809054906101000a900473ffffffffffffffffffffffffffffffffffffffff1673ffffffffffffffffffffffffffffffffffffffff163373ffffffffffffffffffffffffffffffffffffffff161415156104f357600080fd5b600160009054906101000a900473ffffffffffffffffffffffffffffffffffffffff1673ffffffffffffffffffffffffffffffffffffffff1663a9059cbb83836000604051602001526040518363ffffffff167c0100000000000000000000000000000000000000000000000000000000028152600401808373ffffffffffffffffffffffffffffffffffffffff1673ffffffffffffffffffffffffffffffffffffffff16815260200182815260200192505050602060405180830381600087803b15156105c057600080fd5b6102c65a03f115156105d157600080fd5b5050506040518051905015156105e357fe5b5050565b600080600080600160009054906101000a900473ffffffffffffffffffffffffffffffffffffffff1673ffffffffffffffffffffffffffffffffffffffff16633d0c49246000604051602001526040518163ffffffff167c0100000000000000000000000000000000000000000000000000000000028152600401602060405180830381600087803b151561067b57600080fd5b6102c65a03f1151561068c57600080fd5b505050604051805190509250600160009054906101000a900473ffffffffffffffffffffffffffffffffffffffff1673ffffffffffffffffffffffffffffffffffffffff166318160ddd6000604051602001526040518163ffffffff167c0100000000000000000000000000000000000000000000000000000000028152600401602060405180830381600087803b151561072657600080fd5b6102c65a03f1151561073757600080fd5b50505060405180519050915061075682846108dc90919063ffffffff16565b905080935050505090565b6000809054906101000a900473ffffffffffffffffffffffffffffffffffffffff1673ffffffffffffffffffffffffffffffffffffffff163373ffffffffffffffffffffffffffffffffffffffff161415156107bc57600080fd5b600073ffffffffffffffffffffffffffffffffffffffff168173ffffffffffffffffffffffffffffffffffffffff16141515156107f857600080fd5b8073ffffffffffffffffffffffffffffffffffffffff166000809054906101000a900473ffffffffffffffffffffffffffffffffffffffff1673ffffffffffffffffffffffffffffffffffffffff167f8be0079c531659141344cd1fd0a4f28419497f9722a3daafe3b4186f6b6457e060405160405180910390a3806000806101000a81548173ffffffffffffffffffffffffffffffffffffffff021916908373ffffffffffffffffffffffffffffffffffffffff16021790555050565b600160009054906101000a900473ffffffffffffffffffffffffffffffffffffffff1681565b60008282111515156108ea57fe5b8183039050929150505600a165627a7a723058208267b55654b6ce9630032c03ff3f7f71b46ede6e7f8de3adcae95f4dce47ab7a002960606040526040805190810160405280600381526020017f302e3300000000000000000000000000000000000000000000000000000000008152506000908051906020019062000051929190620005cd565b506000600160006101000a81548160ff0219169083151502179055506000600560146101000a81548160ff0219169083151502179055506040805190810160405280600981526020017f546f6b656e20302e31000000000000000000000000000000000000000000000081525060069080519060200190620000d5929190620005cd565b50602060405190810160405280600081525060079080519060200190620000fe929190620005cd565b5060206040519081016040528060008152506008908051906020019062000127929190620005cd565b506000600960006101000a81548160ff021916908360ff1602179055506000600960016101000a81548160ff0219169083151502179055506000600960026101000a81548160ff0219169083151502179055506040805190810160405280601381526020017f53777974636820456e6572677920546f6b656e00000000000000000000000000815250600a9080519060200190620001c7929190620005cd565b506040805190810160405280600381526020017f5345540000000000000000000000000000000000000000000000000000000000815250600b908051906020019062000215929190620005cd565b506012600c60006101000a81548160ff021916908360ff1602179055506000600d55600c60009054906101000a900460ff1660ff16600a0a63d98e948002600e5534156200026257600080fd5b600a8054600181600116156101000203166002900480601f016020809104026020016040519081016040528092919081815260200182805460018160011615610100020316600290048015620002fc5780601f10620002d057610100808354040283529160200191620002fc565b820191906000526020600020905b815481529060010190602001808311620002de57829003601f168201915b5050505050600b8054600181600116156101000203166002900480601f0160208091040260200160405190810160405280929190818152602001828054600181600116156101000203166002900480156200039b5780601f106200036f576101008083540402835291602001916200039b565b820191906000526020600020905b8154815290600101906020018083116200037d57829003601f168201915b5050505050600c60009054906101000a900460ff1633600560006101000a81548173ffffffffffffffffffffffffffffffffffffffff021916908373ffffffffffffffffffffffffffffffffffffffff1602179055506000835111801562000404575060008251115b15156200041057600080fd5b826007908051906020019062000428929190620005cd565b50816008908051906020019062000441929190620005cd565b5080600960006101000a81548160ff021916908360ff16021790555050505033600560006101000a81548173ffffffffffffffffffffffffffffffffffffffff021916908373ffffffffffffffffffffffffffffffffffffffff160217905550600d54600381905550600d54600260003373ffffffffffffffffffffffffffffffffffffffff1673ffffffffffffffffffffffffffffffffffffffff16815260200190815260200160002081905550600560009054906101000a900473ffffffffffffffffffffffffffffffffffffffff1673ffffffffffffffffffffffffffffffffffffffff1660007fddf252ad1be2c89b69c2b068fc378daa952ba7f163c4a11628f55a4df523b3ef600d546040518082815260200191505060405180910390a37ff4cd1f8571e8d9c97ffcb81558807ab73f9803d54de5da6a0420593c82a4a9f030604051808273ffffffffffffffffffffffffffffffffffffffff1673ffffffffffffffffffffffffffffffffffffffff16815260200191505060405180910390a16200067c565b828054600181600116156101000203166002900490600052602060002090601f016020900481019282601f106200061057805160ff191683800117855562000641565b8280016001018555821562000641579182015b828111156200064057825182559160200191906001019062000623565b5b50905062000650919062000654565b5090565b6200067991905b80821115620006755760008160009055506001016200065b565b5090565b90565b612391806200068c6000396000f300606060405260043610610154576000357c0100000000000000000000000000000000000000000000000000000000900463ffffffff16806305d2035b1461015957806306fdde0314610186578063095ea7b3146102145780631608f18f1461026e57806318160ddd1461029357806323b872dd146102bc578063313ce56714610335578063378dc3dc146103645780633d0c49241461038d57806340c10f19146103b65780635005ba471461041057806354fd4d50146104355780635a3b7e42146104c3578063661884631461055157806370a08231146105ab5780637d64bcb4146105f8578063867904b4146106255780638da5cb5b1461066757806395d89b41146106bc578063a24835d11461074a578063a9059cbb1461078c578063bef97c87146107e6578063d73dd62314610813578063dd62ed3e1461086d578063decfe0d4146108d9578063f2fde38b14610906575b600080fd5b341561016457600080fd5b61016c61093f565b604051808215151515815260200191505060405180910390f35b341561019157600080fd5b610199610952565b6040518080602001828103825283818151815260200191508051906020019080838360005b838110156101d95780820151818401526020810190506101be565b50505050905090810190601f1680156102065780820380516001836020036101000a031916815260200191505b509250505060405180910390f35b341561021f57600080fd5b610254600480803573ffffffffffffffffffffffffffffffffffffffff169060200190919080359060200190919050506109f0565b604051808215151515815260200191505060405180910390f35b341561027957600080fd5b61029160048080351515906020019091905050610ae2565b005b341561029e57600080fd5b6102a6610b5c565b6040518082815260200191505060405180910390f35b34156102c757600080fd5b61031b600480803573ffffffffffffffffffffffffffffffffffffffff1690602001909190803573ffffffffffffffffffffffffffffffffffffffff16906020019091908035906020019091905050610b66565b604051808215151515815260200191505060405180910390f35b341561034057600080fd5b610348610b94565b604051808260ff1660ff16815260200191505060405180910390f35b341561036f57600080fd5b610377610ba7565b6040518082815260200191505060405180910390f35b341561039857600080fd5b6103a0610bad565b6040518082815260200191505060405180910390f35b34156103c157600080fd5b6103f6600480803573ffffffffffffffffffffffffffffffffffffffff16906020019091908035906020019091905050610bb3565b604051808215151515815260200191505060405180910390f35b341561041b57600080fd5b61043360048080351515906020019091905050610c61565b005b341561044057600080fd5b610448610cda565b6040518080602001828103825283818151815260200191508051906020019080838360005b8381101561048857808201518184015260208101905061046d565b50505050905090810190601f1680156104b55780820380516001836020036101000a031916815260200191505b509250505060405180910390f35b34156104ce57600080fd5b6104d6610d78565b6040518080602001828103825283818151815260200191508051906020019080838360005b838110156105165780820151818401526020810190506104fb565b50505050905090810190601f1680156105435780820380516001836020036101000a031916815260200191505b509250505060405180910390f35b341561055c57600080fd5b610591600480803573ffffffffffffffffffffffffffffffffffffffff16906020019091908035906020019091905050610e16565b604051808215151515815260200191505060405180910390f35b34156105b657600080fd5b6105e2600480803573ffffffffffffffffffffffffffffffffffffffff169060200190919050506110a7565b6040518082815260200191505060405180910390f35b341561060357600080fd5b61060b6110f0565b604051808215151515815260200191505060405180910390f35b341561063057600080fd5b610665600480803573ffffffffffffffffffffffffffffffffffffffff16906020019091908035906020019091905050611181565b005b341561067257600080fd5b61067a6113aa565b604051808273ffffffffffffffffffffffffffffffffffffffff1673ffffffffffffffffffffffffffffffffffffffff16815260200191505060405180910390f35b34156106c757600080fd5b6106cf6113d0565b6040518080602001828103825283818151815260200191508051906020019080838360005b8381101561070f5780820151818401526020810190506106f4565b50505050905090810190601f16801561073c5780820380516001836020036101000a031916815260200191505b509250505060405180910390f35b341561075557600080fd5b61078a600480803573ffffffffffffffffffffffffffffffffffffffff1690602001909190803590602001909190505061146e565b005b341561079757600080fd5b6107cc600480803573ffffffffffffffffffffffffffffffffffffffff1690602001909190803590602001909190505061166e565b604051808215151515815260200191505060405180910390f35b34156107f157600080fd5b6107f961169a565b604051808215151515815260200191505060405180910390f35b341561081e57600080fd5b610853600480803573ffffffffffffffffffffffffffffffffffffffff169060200190919080359060200190919050506116ad565b604051808215151515815260200191505060405180910390f35b341561087857600080fd5b6108c3600480803573ffffffffffffffffffffffffffffffffffffffff1690602001909190803573ffffffffffffffffffffffffffffffffffffffff169060200190919050506118a9565b6040518082815260200191505060405180910390f35b34156108e457600080fd5b6108ec611930565b604051808215151515815260200191505060405180910390f35b341561091157600080fd5b61093d600480803573ffffffffffffffffffffffffffffffffffffffff16906020019091905050611943565b005b600560149054906101000a900460ff1681565b600a8054600181600116156101000203166002900480601f0160208091040260200160405190810160405280929190818152602001828054600181600116156101000203166002900480156109e85780601f106109bd576101008083540402835291602001916109e8565b820191906000526020600020905b8154815290600101906020018083116109cb57829003601f168201915b505050505081565b600081600460003373ffffffffffffffffffffffffffffffffffffffff1673ffffffffffffffffffffffffffffffffffffffff16815260200190815260200160002060008573ffffffffffffffffffffffffffffffffffffffff1673ffffffffffffffffffffffffffffffffffffffff168152602001908152602001600020819055508273ffffffffffffffffffffffffffffffffffffffff163373ffffffffffffffffffffffffffffffffffffffff167f8c5be1e5ebec7d5bd14f71427d1e84f3dd0314c0f7b2291e5b200ac8c7c3b925846040518082815260200191505060405180910390a36001905092915050565b600560009054906101000a900473ffffffffffffffffffffffffffffffffffffffff1673ffffffffffffffffffffffffffffffffffffffff163373ffffffffffffffffffffffffffffffffffffffff16141515610b3e57600080fd5b8015600960016101000a81548160ff02191690831515021790555050565b6000600354905090565b6000600960019054906101000a900460ff161515610b8057fe5b610b8b848484611a9b565b90509392505050565b600c60009054906101000a900460ff1681565b600d5481565b600e5481565b6000600960019054906101000a900460ff161515610bcd57fe5b600560009054906101000a900473ffffffffffffffffffffffffffffffffffffffff1673ffffffffffffffffffffffffffffffffffffffff163373ffffffffffffffffffffffffffffffffffffffff16141515610c2957600080fd5b600560149054906101000a900460ff16151515610c4557600080fd5b610c4f8383611e5a565b1515610c5757fe5b6001905092915050565b600560009054906101000a900473ffffffffffffffffffffffffffffffffffffffff1673ffffffffffffffffffffffffffffffffffffffff163373ffffffffffffffffffffffffffffffffffffffff16141515610cbd57600080fd5b80600960026101000a81548160ff02191690831515021790555050565b60008054600181600116156101000203166002900480601f016020809104026020016040519081016040528092919081815260200182805460018160011615610100020316600290048015610d705780601f10610d4557610100808354040283529160200191610d70565b820191906000526020600020905b815481529060010190602001808311610d5357829003601f168201915b505050505081565b60068054600181600116156101000203166002900480601f016020809104026020016040519081016040528092919081815260200182805460018160011615610100020316600290048015610e0e5780601f10610de357610100808354040283529160200191610e0e565b820191906000526020600020905b815481529060010190602001808311610df157829003601f168201915b505050505081565b600080600460003373ffffffffffffffffffffffffffffffffffffffff1673ffffffffffffffffffffffffffffffffffffffff16815260200190815260200160002060008573ffffffffffffffffffffffffffffffffffffffff1673ffffffffffffffffffffffffffffffffffffffff16815260200190815260200160002054905080831115610f27576000600460003373ffffffffffffffffffffffffffffffffffffffff1673ffffffffffffffffffffffffffffffffffffffff16815260200190815260200160002060008673ffffffffffffffffffffffffffffffffffffffff1673ffffffffffffffffffffffffffffffffffffffff16815260200190815260200160002081905550610fbb565b610f3a838261204290919063ffffffff16565b600460003373ffffffffffffffffffffffffffffffffffffffff1673ffffffffffffffffffffffffffffffffffffffff16815260200190815260200160002060008673ffffffffffffffffffffffffffffffffffffffff1673ffffffffffffffffffffffffffffffffffffffff168152602001908152602001600020819055505b8373ffffffffffffffffffffffffffffffffffffffff163373ffffffffffffffffffffffffffffffffffffffff167f8c5be1e5ebec7d5bd14f71427d1e84f3dd0314c0f7b2291e5b200ac8c7c3b925600460003373ffffffffffffffffffffffffffffffffffffffff1673ffffffffffffffffffffffffffffffffffffffff16815260200190815260200160002060008873ffffffffffffffffffffffffffffffffffffffff1673ffffffffffffffffffffffffffffffffffffffff168152602001908152602001600020546040518082815260200191505060405180910390a3600191505092915050565b6000600260008373ffffffffffffffffffffffffffffffffffffffff1673ffffffffffffffffffffffffffffffffffffffff168152602001908152602001600020549050919050565b6000600560009054906101000a900473ffffffffffffffffffffffffffffffffffffffff1673ffffffffffffffffffffffffffffffffffffffff163373ffffffffffffffffffffffffffffffffffffffff1614151561114e57600080fd5b600560149054906101000a900460ff1615151561116a57600080fd5b61117261205b565b151561117a57fe5b6001905090565b600960019054906101000a900460ff16151561119957fe5b600560009054906101000a900473ffffffffffffffffffffffffffffffffffffffff1673ffffffffffffffffffffffffffffffffffffffff163373ffffffffffffffffffffffffffffffffffffffff161415156111f557600080fd5b8160008173ffffffffffffffffffffffffffffffffffffffff161415151561121c57600080fd5b823073ffffffffffffffffffffffffffffffffffffffff168173ffffffffffffffffffffffffffffffffffffffff161415151561125857600080fd5b61126d8360035461212390919063ffffffff16565b6003819055506112c583600260008773ffffffffffffffffffffffffffffffffffffffff1673ffffffffffffffffffffffffffffffffffffffff1681526020019081526020016000205461212390919063ffffffff16565b600260008673ffffffffffffffffffffffffffffffffffffffff1673ffffffffffffffffffffffffffffffffffffffff168152602001908152602001600020819055507f9386c90217c323f58030f9dadcbc938f807a940f4ff41cd4cead9562f5da7dc3836040518082815260200191505060405180910390a18373ffffffffffffffffffffffffffffffffffffffff163073ffffffffffffffffffffffffffffffffffffffff167fddf252ad1be2c89b69c2b068fc378daa952ba7f163c4a11628f55a4df523b3ef856040518082815260200191505060405180910390a350505050565b600560009054906101000a900473ffffffffffffffffffffffffffffffffffffffff1681565b600b8054600181600116156101000203166002900480601f0160208091040260200160405190810160405280929190818152602001828054600181600116156101000203166002900480156114665780601f1061143b57610100808354040283529160200191611466565b820191906000526020600020905b81548152906001019060200180831161144957829003601f168201915b505050505081565b600960019054906101000a900460ff16151561148657fe5b600960029054906101000a900460ff1615156114a157600080fd5b8173ffffffffffffffffffffffffffffffffffffffff163373ffffffffffffffffffffffffffffffffffffffff1614806115285750600560009054906101000a900473ffffffffffffffffffffffffffffffffffffffff1673ffffffffffffffffffffffffffffffffffffffff163373ffffffffffffffffffffffffffffffffffffffff16145b151561153357600080fd5b61158581600260008573ffffffffffffffffffffffffffffffffffffffff1673ffffffffffffffffffffffffffffffffffffffff1681526020019081526020016000205461204290919063ffffffff16565b600260008473ffffffffffffffffffffffffffffffffffffffff1673ffffffffffffffffffffffffffffffffffffffff168152602001908152602001600020819055506115dd8160035461204290919063ffffffff16565b6003819055507f9a1b418bc061a5d80270261562e6986a35d995f8051145f277be16103abd3453816040518082815260200191505060405180910390a160008273ffffffffffffffffffffffffffffffffffffffff167fddf252ad1be2c89b69c2b068fc378daa952ba7f163c4a11628f55a4df523b3ef836040518082815260200191505060405180910390a35050565b6000600960019054906101000a900460ff16151561168857fe5b6116928383612141565b905092915050565b600960019054906101000a900460ff1681565b600061173e82600460003373ffffffffffffffffffffffffffffffffffffffff1673ffffffffffffffffffffffffffffffffffffffff16815260200190815260200160002060008673ffffffffffffffffffffffffffffffffffffffff1673ffffffffffffffffffffffffffffffffffffffff1681526020019081526020016000205461212390919063ffffffff16565b600460003373ffffffffffffffffffffffffffffffffffffffff1673ffffffffffffffffffffffffffffffffffffffff16815260200190815260200160002060008573ffffffffffffffffffffffffffffffffffffffff1673ffffffffffffffffffffffffffffffffffffffff168152602001908152602001600020819055508273ffffffffffffffffffffffffffffffffffffffff163373ffffffffffffffffffffffffffffffffffffffff167f8c5be1e5ebec7d5bd14f71427d1e84f3dd0314c0f7b2291e5b200ac8c7c3b925600460003373ffffffffffffffffffffffffffffffffffffffff1673ffffffffffffffffffffffffffffffffffffffff16815260200190815260200160002060008773ffffffffffffffffffffffffffffffffffffffff1673ffffffffffffffffffffffffffffffffffffffff168152602001908152602001600020546040518082815260200191505060405180910390a36001905092915050565b6000600460008473ffffffffffffffffffffffffffffffffffffffff1673ffffffffffffffffffffffffffffffffffffffff16815260200190815260200160002060008373ffffffffffffffffffffffffffffffffffffffff1673ffffffffffffffffffffffffffffffffffffffff16815260200190815260200160002054905092915050565b600960029054906101000a900460ff1681565b600560009054906101000a900473ffffffffffffffffffffffffffffffffffffffff1673ffffffffffffffffffffffffffffffffffffffff163373ffffffffffffffffffffffffffffffffffffffff1614151561199f57600080fd5b600073ffffffffffffffffffffffffffffffffffffffff168173ffffffffffffffffffffffffffffffffffffffff16141515156119db57600080fd5b8073ffffffffffffffffffffffffffffffffffffffff16600560009054906101000a900473ffffffffffffffffffffffffffffffffffffffff1673ffffffffffffffffffffffffffffffffffffffff167f8be0079c531659141344cd1fd0a4f28419497f9722a3daafe3b4186f6b6457e060405160405180910390a380600560006101000a81548173ffffffffffffffffffffffffffffffffffffffff021916908373ffffffffffffffffffffffffffffffffffffffff16021790555050565b60008073ffffffffffffffffffffffffffffffffffffffff168373ffffffffffffffffffffffffffffffffffffffff1614151515611ad857600080fd5b600260008573ffffffffffffffffffffffffffffffffffffffff1673ffffffffffffffffffffffffffffffffffffffff168152602001908152602001600020548211151515611b2657600080fd5b600460008573ffffffffffffffffffffffffffffffffffffffff1673ffffffffffffffffffffffffffffffffffffffff16815260200190815260200160002060003373ffffffffffffffffffffffffffffffffffffffff1673ffffffffffffffffffffffffffffffffffffffff168152602001908152602001600020548211151515611bb157600080fd5b611c0382600260008773ffffffffffffffffffffffffffffffffffffffff1673ffffffffffffffffffffffffffffffffffffffff1681526020019081526020016000205461204290919063ffffffff16565b600260008673ffffffffffffffffffffffffffffffffffffffff1673ffffffffffffffffffffffffffffffffffffffff16815260200190815260200160002081905550611c9882600260008673ffffffffffffffffffffffffffffffffffffffff1673ffffffffffffffffffffffffffffffffffffffff1681526020019081526020016000205461212390919063ffffffff16565b600260008573ffffffffffffffffffffffffffffffffffffffff1673ffffffffffffffffffffffffffffffffffffffff16815260200190815260200160002081905550611d6a82600460008773ffffffffffffffffffffffffffffffffffffffff1673ffffffffffffffffffffffffffffffffffffffff16815260200190815260200160002060003373ffffffffffffffffffffffffffffffffffffffff1673ffffffffffffffffffffffffffffffffffffffff1681526020019081526020016000205461204290919063ffffffff16565b600460008673ffffffffffffffffffffffffffffffffffffffff1673ffffffffffffffffffffffffffffffffffffffff16815260200190815260200160002060003373ffffffffffffffffffffffffffffffffffffffff1673ffffffffffffffffffffffffffffffffffffffff168152602001908152602001600020819055508273ffffffffffffffffffffffffffffffffffffffff168473ffffffffffffffffffffffffffffffffffffffff167fddf252ad1be2c89b69c2b068fc378daa952ba7f163c4a11628f55a4df523b3ef846040518082815260200191505060405180910390a3600190509392505050565b6000600560009054906101000a900473ffffffffffffffffffffffffffffffffffffffff1673ffffffffffffffffffffffffffffffffffffffff163373ffffffffffffffffffffffffffffffffffffffff16141515611eb857600080fd5b600560149054906101000a900460ff16151515611ed457600080fd5b611ee98260035461212390919063ffffffff16565b600381905550611f4182600260008673ffffffffffffffffffffffffffffffffffffffff1673ffffffffffffffffffffffffffffffffffffffff1681526020019081526020016000205461212390919063ffffffff16565b600260008573ffffffffffffffffffffffffffffffffffffffff1673ffffffffffffffffffffffffffffffffffffffff168152602001908152602001600020819055508273ffffffffffffffffffffffffffffffffffffffff167f0f6798a560793a54c3bcfe86a93cde1e73087d944c0ea20544137d4121396885836040518082815260200191505060405180910390a28273ffffffffffffffffffffffffffffffffffffffff16600073ffffffffffffffffffffffffffffffffffffffff167fddf252ad1be2c89b69c2b068fc378daa952ba7f163c4a11628f55a4df523b3ef846040518082815260200191505060405180910390a36001905092915050565b600082821115151561205057fe5b818303905092915050565b6000600560009054906101000a900473ffffffffffffffffffffffffffffffffffffffff1673ffffffffffffffffffffffffffffffffffffffff163373ffffffffffffffffffffffffffffffffffffffff161415156120b957600080fd5b600560149054906101000a900460ff161515156120d557600080fd5b6001600560146101000a81548160ff0219169083151502179055507fae5184fba832cb2b1f702aca6117b8d265eaf03ad33eb133f19dde0f5920fa0860405160405180910390a16001905090565b600080828401905083811015151561213757fe5b8091505092915050565b60008073ffffffffffffffffffffffffffffffffffffffff168373ffffffffffffffffffffffffffffffffffffffff161415151561217e57600080fd5b600260003373ffffffffffffffffffffffffffffffffffffffff1673ffffffffffffffffffffffffffffffffffffffff1681526020019081526020016000205482111515156121cc57600080fd5b61221e82600260003373ffffffffffffffffffffffffffffffffffffffff1673ffffffffffffffffffffffffffffffffffffffff1681526020019081526020016000205461204290919063ffffffff16565b600260003373ffffffffffffffffffffffffffffffffffffffff1673ffffffffffffffffffffffffffffffffffffffff168152602001908152602001600020819055506122b382600260008673ffffffffffffffffffffffffffffffffffffffff1673ffffffffffffffffffffffffffffffffffffffff1681526020019081526020016000205461212390919063ffffffff16565b600260008573ffffffffffffffffffffffffffffffffffffffff1673ffffffffffffffffffffffffffffffffffffffff168152602001908152602001600020819055508273ffffffffffffffffffffffffffffffffffffffff163373ffffffffffffffffffffffffffffffffffffffff167fddf252ad1be2c89b69c2b068fc378daa952ba7f163c4a11628f55a4df523b3ef846040518082815260200191505060405180910390a360019050929150505600a165627a7a723058207b54e09d785b2b88096e24000b6f393e7b189bb5f681bb287b82797d691dc65f0029",
  "source": "pragma solidity ^0.4.18;\n\nimport \"./SwytchToken.sol\";\nimport \"./Utils.sol\";\nimport \"zeppelin-solidity/contracts/ownership/Ownable.sol\";\nimport \"zeppelin-solidity/contracts/math/SafeMath.sol\";\n\n\ncontract SmartTokenController is Ownable, Utils {\n    SwytchToken public token;   // smart token\n    using SafeMath for uint256;\n    /**\n        @dev constructor\n    */\n    function SmartTokenController() public {\n        //    function SmartTokenController(SwytchToken _token) public validAddress(_token) {\n        owner = msg.sender;\n        token = new SwytchToken();\n    }\n\n\n\n    /**\n        @dev allows transferring the token ownership\n        the new owner still need to accept the transfer\n        can only be called by the contract owner\n\n        @param _newOwner    new token owner\n    */\n    function transferTokenOwnership(address _newOwner) public {\n        token.transferOwnership(_newOwner);\n    }\n\n    /**\n        @dev disables/enables token transfers\n        can only be called by the contract owner\n\n        @param _disable    true to disable transfers, false to enable them\n    */\n//    function disableTokenTransfers(bool _disable) public onlyOwner returns (bool) {\n//        return token.disableTransfers(_disable);\n//    }\n\n    /**\n        @dev withdraws tokens held by the token and sends them to an account\n        can only be called by the owner\n\n        @param _to      account to receive the new amount\n        @param _amount  amount to withdraw\n    */\n    function withdrawFromToken(address _to, uint256 _amount) public onlyOwner {\n        assert(token.transfer(_to, _amount));\n    }\n\n    function mintToken(address _to, uint256 _amount) public onlyOwner {\n        assert(token.mint(_to, _amount));\n    }\n\n    function unmintedTokens() public returns (uint256) {\n        uint256 _max = token.MAXIMUM_SUPPLY();\n        uint256 _currentSupply = token.totalSupply();\n        uint256 minted = _max.sub(_currentSupply);\n        return minted;\n    }\n\n\n}",
  "sourcePath": "/Users/ghostmac/WebstormProjects/swytch/swytch-smart-contracts/contracts/SmartTokenController.sol",
  "compiler": {
    "name": "solc",
    "version": "0.4.18+commit.9cf6e910.Emscripten.clang"
  },
  "schemaVersion": "1.0.1",
  "updatedAt": "2018-03-27T13:24:17.355Z"
}