{
  "contractName": "SwytchCrowdsale",
  "abi": [
    {
      "constant": true,
      "inputs": [],
      "name": "getTotalFundsRaised",
      "outputs": [
        {
          "name": "",
          "type": "uint256"
        }
      ],
      "payable": false,
      "stateMutability": "view",
      "type": "function"
    },
    {
      "constant": true,
      "inputs": [],
      "name": "EXCHANGE_RATE",
      "outputs": [
        {
          "name": "",
          "type": "uint256"
        }
      ],
      "payable": false,
      "stateMutability": "view",
      "type": "function"
    },
    {
      "constant": true,
      "inputs": [],
      "name": "isActive",
      "outputs": [
        {
          "name": "",
          "type": "bool"
        }
      ],
      "payable": false,
      "stateMutability": "view",
      "type": "function"
    },
    {
      "constant": true,
      "inputs": [],
      "name": "rate",
      "outputs": [
        {
          "name": "",
          "type": "uint256"
        }
      ],
      "payable": false,
      "stateMutability": "view",
      "type": "function"
    },
    {
      "constant": true,
      "inputs": [
        {
          "name": "",
          "type": "address"
        }
      ],
      "name": "presaleGranteesMap",
      "outputs": [
        {
          "name": "",
          "type": "uint256"
        }
      ],
      "payable": false,
      "stateMutability": "view",
      "type": "function"
    },
    {
      "constant": true,
      "inputs": [],
      "name": "endTime",
      "outputs": [
        {
          "name": "",
          "type": "uint256"
        }
      ],
      "payable": false,
      "stateMutability": "view",
      "type": "function"
    },
    {
      "constant": true,
      "inputs": [],
      "name": "partnershipWallet",
      "outputs": [
        {
          "name": "",
          "type": "address"
        }
      ],
      "payable": false,
      "stateMutability": "view",
      "type": "function"
    },
    {
      "constant": true,
      "inputs": [],
      "name": "TGE_TOTAL_ALLOCATION",
      "outputs": [
        {
          "name": "",
          "type": "uint256"
        }
      ],
      "payable": false,
      "stateMutability": "view",
      "type": "function"
    },
    {
      "constant": true,
      "inputs": [],
      "name": "weiRaised",
      "outputs": [
        {
          "name": "",
          "type": "uint256"
        }
      ],
      "payable": false,
      "stateMutability": "view",
      "type": "function"
    },
    {
      "constant": true,
      "inputs": [],
      "name": "wallet",
      "outputs": [
        {
          "name": "",
          "type": "address"
        }
      ],
      "payable": false,
      "stateMutability": "view",
      "type": "function"
    },
    {
      "constant": true,
      "inputs": [],
      "name": "teamWallet",
      "outputs": [
        {
          "name": "",
          "type": "address"
        }
      ],
      "payable": false,
      "stateMutability": "view",
      "type": "function"
    },
    {
      "constant": true,
      "inputs": [],
      "name": "getRate",
      "outputs": [
        {
          "name": "",
          "type": "uint256"
        }
      ],
      "payable": false,
      "stateMutability": "view",
      "type": "function"
    },
    {
      "constant": true,
      "inputs": [],
      "name": "TOKEN_COMMONS_ALLOCATION",
      "outputs": [
        {
          "name": "",
          "type": "uint256"
        }
      ],
      "payable": false,
      "stateMutability": "view",
      "type": "function"
    },
    {
      "constant": true,
      "inputs": [],
      "name": "foundationWallet",
      "outputs": [
        {
          "name": "",
          "type": "address"
        }
      ],
      "payable": false,
      "stateMutability": "view",
      "type": "function"
    },
    {
      "constant": true,
      "inputs": [],
      "name": "startTime",
      "outputs": [
        {
          "name": "",
          "type": "uint256"
        }
      ],
      "payable": false,
      "stateMutability": "view",
      "type": "function"
    },
    {
      "constant": true,
      "inputs": [],
      "name": "FUTURE_RESERVE_ALLOCATION",
      "outputs": [
        {
          "name": "",
          "type": "uint256"
        }
      ],
      "payable": false,
      "stateMutability": "view",
      "type": "function"
    },
    {
      "constant": true,
      "inputs": [],
      "name": "owner",
      "outputs": [
        {
          "name": "",
          "type": "address"
        }
      ],
      "payable": false,
      "stateMutability": "view",
      "type": "function"
    },
    {
      "constant": true,
      "inputs": [],
      "name": "MAX_TOKEN_GRANTEES",
      "outputs": [
        {
          "name": "",
          "type": "uint8"
        }
      ],
      "payable": false,
      "stateMutability": "view",
      "type": "function"
    },
    {
      "constant": true,
      "inputs": [],
      "name": "BOUNTY_ALLOCATION",
      "outputs": [
        {
          "name": "",
          "type": "uint256"
        }
      ],
      "payable": false,
      "stateMutability": "view",
      "type": "function"
    },
    {
      "constant": true,
      "inputs": [],
      "name": "CORE_TEAM_ALLOCATION",
      "outputs": [
        {
          "name": "",
          "type": "uint256"
        }
      ],
      "payable": false,
      "stateMutability": "view",
      "type": "function"
    },
    {
      "constant": true,
      "inputs": [],
      "name": "PRIVATE_SALE_ALLOCATION",
      "outputs": [
        {
          "name": "",
          "type": "uint256"
        }
      ],
      "payable": false,
      "stateMutability": "view",
      "type": "function"
    },
    {
      "constant": true,
      "inputs": [],
      "name": "PARTNERSHIPS_ALLOCATION",
      "outputs": [
        {
          "name": "",
          "type": "uint256"
        }
      ],
      "payable": false,
      "stateMutability": "view",
      "type": "function"
    },
    {
      "constant": false,
      "inputs": [
        {
          "name": "_grantee",
          "type": "address"
        },
        {
          "name": "_value",
          "type": "uint256"
        }
      ],
      "name": "addUpdateGrantee",
      "outputs": [],
      "payable": false,
      "stateMutability": "nonpayable",
      "type": "function"
    },
    {
      "constant": true,
      "inputs": [],
      "name": "FIXED_TOTAL_SUPPLY",
      "outputs": [
        {
          "name": "",
          "type": "uint256"
        }
      ],
      "payable": false,
      "stateMutability": "view",
      "type": "function"
    },
    {
      "constant": true,
      "inputs": [
        {
          "name": "",
          "type": "uint256"
        }
      ],
      "name": "presaleGranteesMapKeys",
      "outputs": [
        {
          "name": "",
          "type": "address"
        }
      ],
      "payable": false,
      "stateMutability": "view",
      "type": "function"
    },
    {
      "constant": false,
      "inputs": [
        {
          "name": "_grantee",
          "type": "address"
        }
      ],
      "name": "deleteGrantee",
      "outputs": [],
      "payable": false,
      "stateMutability": "nonpayable",
      "type": "function"
    },
    {
      "constant": true,
      "inputs": [],
      "name": "reserveWallet",
      "outputs": [
        {
          "name": "",
          "type": "address"
        }
      ],
      "payable": false,
      "stateMutability": "view",
      "type": "function"
    },
    {
      "constant": true,
      "inputs": [],
      "name": "bountyWallet",
      "outputs": [
        {
          "name": "",
          "type": "address"
        }
      ],
      "payable": false,
      "stateMutability": "view",
      "type": "function"
    },
    {
      "constant": true,
      "inputs": [],
      "name": "TOTAL_SALE_ALLOCATION",
      "outputs": [
        {
          "name": "",
          "type": "uint256"
        }
      ],
      "payable": false,
      "stateMutability": "view",
      "type": "function"
    },
    {
      "constant": false,
      "inputs": [
        {
          "name": "beneficiary",
          "type": "address"
        }
      ],
      "name": "buyTokens",
      "outputs": [],
      "payable": true,
      "stateMutability": "payable",
      "type": "function"
    },
    {
      "constant": true,
      "inputs": [],
      "name": "hasEnded",
      "outputs": [
        {
          "name": "",
          "type": "bool"
        }
      ],
      "payable": false,
      "stateMutability": "view",
      "type": "function"
    },
    {
      "constant": false,
      "inputs": [
        {
          "name": "newOwner",
          "type": "address"
        }
      ],
      "name": "transferOwnership",
      "outputs": [],
      "payable": false,
      "stateMutability": "nonpayable",
      "type": "function"
    },
    {
      "constant": true,
      "inputs": [],
      "name": "token",
      "outputs": [
        {
          "name": "",
          "type": "address"
        }
      ],
      "payable": false,
      "stateMutability": "view",
      "type": "function"
    },
    {
      "constant": true,
      "inputs": [],
      "name": "CROWDSALE_ALLOCATION",
      "outputs": [
        {
          "name": "",
          "type": "uint256"
        }
      ],
      "payable": false,
      "stateMutability": "view",
      "type": "function"
    },
    {
      "inputs": [
        {
          "name": "_startTime",
          "type": "uint256"
        },
        {
          "name": "_endTime",
          "type": "uint256"
        },
        {
          "name": "_wallet",
          "type": "address"
        },
        {
          "name": "_teamWallet",
          "type": "address"
        },
        {
          "name": "_foundationWallet",
          "type": "address"
        },
        {
          "name": "_bountyWallet",
          "type": "address"
        },
        {
          "name": "_reserveWallet",
          "type": "address"
        },
        {
          "name": "_partnershipWallet",
          "type": "address"
        },
        {
          "name": "_swytchToken",
          "type": "address"
        }
      ],
      "payable": false,
      "stateMutability": "nonpayable",
      "type": "constructor"
    },
    {
      "payable": true,
      "stateMutability": "payable",
      "type": "fallback"
    },
    {
      "anonymous": false,
      "inputs": [
        {
          "indexed": true,
          "name": "_grantee",
          "type": "address"
        },
        {
          "indexed": false,
          "name": "_amount",
          "type": "uint256"
        }
      ],
      "name": "GrantAdded",
      "type": "event"
    },
    {
      "anonymous": false,
      "inputs": [
        {
          "indexed": true,
          "name": "_grantee",
          "type": "address"
        },
        {
          "indexed": false,
          "name": "_oldAmount",
          "type": "uint256"
        },
        {
          "indexed": false,
          "name": "_newAmount",
          "type": "uint256"
        }
      ],
      "name": "GrantUpdated",
      "type": "event"
    },
    {
      "anonymous": false,
      "inputs": [
        {
          "indexed": true,
          "name": "_grantee",
          "type": "address"
        },
        {
          "indexed": false,
          "name": "_hadAmount",
          "type": "uint256"
        }
      ],
      "name": "GrantDeleted",
      "type": "event"
    },
    {
      "anonymous": false,
      "inputs": [
        {
          "indexed": true,
          "name": "previousOwner",
          "type": "address"
        },
        {
          "indexed": true,
          "name": "newOwner",
          "type": "address"
        }
      ],
      "name": "OwnershipTransferred",
      "type": "event"
    },
    {
      "anonymous": false,
      "inputs": [
        {
          "indexed": true,
          "name": "purchaser",
          "type": "address"
        },
        {
          "indexed": true,
          "name": "beneficiary",
          "type": "address"
        },
        {
          "indexed": false,
          "name": "value",
          "type": "uint256"
        },
        {
          "indexed": false,
          "name": "amount",
          "type": "uint256"
        }
      ],
      "name": "TokenPurchase",
      "type": "event"
    }
  ],
  "bytecode": "0x606060405234156200001057600080fd5b604051610120806200721c8339810160405280805190602001909190805190602001909190805190602001909190805190602001909190805190602001909190805190602001909190805190602001909190805190602001909190805190602001909190505088886001894284101515156200008b57600080fd5b8383101515156200009b57600080fd5b600082111515620000ab57600080fd5b600073ffffffffffffffffffffffffffffffffffffffff168173ffffffffffffffffffffffffffffffffffffffff1614151515620000e857600080fd5b62000106620005a164010000000002620016f9176401000000009004565b6000806101000a81548173ffffffffffffffffffffffffffffffffffffffff021916908373ffffffffffffffffffffffffffffffffffffffff16021790555083600181905550826002819055508160048190555080600360006101000a81548173ffffffffffffffffffffffffffffffffffffffff021916908373ffffffffffffffffffffffffffffffffffffffff1602179055505050505033600660006101000a81548173ffffffffffffffffffffffffffffffffffffffff021916908373ffffffffffffffffffffffffffffffffffffffff160217905550600073ffffffffffffffffffffffffffffffffffffffff168773ffffffffffffffffffffffffffffffffffffffff16141515156200021d57600080fd5b600073ffffffffffffffffffffffffffffffffffffffff168673ffffffffffffffffffffffffffffffffffffffff16141515156200025a57600080fd5b600073ffffffffffffffffffffffffffffffffffffffff168573ffffffffffffffffffffffffffffffffffffffff16141515156200029757600080fd5b600073ffffffffffffffffffffffffffffffffffffffff168473ffffffffffffffffffffffffffffffffffffffff1614151515620002d457600080fd5b600073ffffffffffffffffffffffffffffffffffffffff168373ffffffffffffffffffffffffffffffffffffffff16141515156200031157600080fd5b600073ffffffffffffffffffffffffffffffffffffffff168273ffffffffffffffffffffffffffffffffffffffff16141515156200034e57600080fd5b600073ffffffffffffffffffffffffffffffffffffffff168173ffffffffffffffffffffffffffffffffffffffff16141515156200038b57600080fd5b86600760006101000a81548173ffffffffffffffffffffffffffffffffffffffff021916908373ffffffffffffffffffffffffffffffffffffffff16021790555085600860006101000a81548173ffffffffffffffffffffffffffffffffffffffff021916908373ffffffffffffffffffffffffffffffffffffffff16021790555084600960006101000a81548173ffffffffffffffffffffffffffffffffffffffff021916908373ffffffffffffffffffffffffffffffffffffffff16021790555083600b60006101000a81548173ffffffffffffffffffffffffffffffffffffffff021916908373ffffffffffffffffffffffffffffffffffffffff16021790555082600c60006101000a81548173ffffffffffffffffffffffffffffffffffffffff021916908373ffffffffffffffffffffffffffffffffffffffff16021790555081600a60006101000a81548173ffffffffffffffffffffffffffffffffffffffff021916908373ffffffffffffffffffffffffffffffffffffffff160217905550806000806101000a81548173ffffffffffffffffffffffffffffffffffffffff021916908373ffffffffffffffffffffffffffffffffffffffff16021790555033600660006101000a81548173ffffffffffffffffffffffffffffffffffffffff021916908373ffffffffffffffffffffffffffffffffffffffff160217905550505050505050505050620005da565b6000620005ad620005c9565b604051809103906000f0801515620005c457600080fd5b905090565b604051612a6a80620047b283390190565b6141c880620005ea6000396000f300606060405260043610620001cf576000357c0100000000000000000000000000000000000000000000000000000000900463ffffffff1680630c3e2d2d14620001dc57806314a8bd0d146200020857806322f3e2d414620002345780632c4e722e14620002645780632dd96c8414620002905780633197cbb614620002e0578063367d53bc146200030c5780633adfd17b14620003645780634042b66f1462000390578063521eb27314620003bc578063599270441462000414578063679aefce146200046c57806367d975fc14620004985780636b7ae8dc14620004c457806378e97925146200051c578063889d691814620005485780638da5cb5b146200057457806391f5f3c914620005cc578063998f41b114620005fe578063a1717cd9146200062a578063a6c3e5311462000656578063a8e249c81462000682578063af1034ab14620006ae578063b3602acd14620006f3578063cbe0e49a146200071f578063d316e9121462000785578063d72b11bd14620007c1578063e57605201462000819578063e855270e1462000871578063ec8ac4d8146200089d578063ecb70fb714620008cd578063f2fde38b14620008fd578063fc0c546a1462000939578063fd09d0131462000991575b620001da33620009bd565b005b3415620001e857600080fd5b620001f262000ba6565b6040518082815260200191505060405180910390f35b34156200021457600080fd5b6200021e62000bae565b6040518082815260200191505060405180910390f35b34156200024057600080fd5b6200024a62000bb3565b604051808215151515815260200191505060405180910390f35b34156200027057600080fd5b6200027a62000bce565b6040518082815260200191505060405180910390f35b34156200029c57600080fd5b620002ca600480803573ffffffffffffffffffffffffffffffffffffffff1690602001909190505062000bd4565b6040518082815260200191505060405180910390f35b3415620002ec57600080fd5b620002f662000bec565b6040518082815260200191505060405180910390f35b34156200031857600080fd5b6200032262000bf2565b604051808273ffffffffffffffffffffffffffffffffffffffff1673ffffffffffffffffffffffffffffffffffffffff16815260200191505060405180910390f35b34156200037057600080fd5b6200037a62000c18565b6040518082815260200191505060405180910390f35b34156200039c57600080fd5b620003a662000c20565b6040518082815260200191505060405180910390f35b3415620003c857600080fd5b620003d262000c26565b604051808273ffffffffffffffffffffffffffffffffffffffff1673ffffffffffffffffffffffffffffffffffffffff16815260200191505060405180910390f35b34156200042057600080fd5b6200042a62000c4c565b604051808273ffffffffffffffffffffffffffffffffffffffff1673ffffffffffffffffffffffffffffffffffffffff16815260200191505060405180910390f35b34156200047857600080fd5b6200048262000c72565b6040518082815260200191505060405180910390f35b3415620004a457600080fd5b620004ae62000c7c565b6040518082815260200191505060405180910390f35b3415620004d057600080fd5b620004da62000c84565b604051808273ffffffffffffffffffffffffffffffffffffffff1673ffffffffffffffffffffffffffffffffffffffff16815260200191505060405180910390f35b34156200052857600080fd5b6200053262000caa565b6040518082815260200191505060405180910390f35b34156200055457600080fd5b6200055e62000cb0565b6040518082815260200191505060405180910390f35b34156200058057600080fd5b6200058a62000cb7565b604051808273ffffffffffffffffffffffffffffffffffffffff1673ffffffffffffffffffffffffffffffffffffffff16815260200191505060405180910390f35b3415620005d857600080fd5b620005e262000cdd565b604051808260ff1660ff16815260200191505060405180910390f35b34156200060a57600080fd5b6200061462000ce2565b6040518082815260200191505060405180910390f35b34156200063657600080fd5b6200064062000ce9565b6040518082815260200191505060405180910390f35b34156200066257600080fd5b6200066c62000cf1565b6040518082815260200191505060405180910390f35b34156200068e57600080fd5b6200069862000cf9565b6040518082815260200191505060405180910390f35b3415620006ba57600080fd5b620006f1600480803573ffffffffffffffffffffffffffffffffffffffff1690602001909190803590602001909190505062000d01565b005b3415620006ff57600080fd5b6200070962000fb9565b6040518082815260200191505060405180910390f35b34156200072b57600080fd5b62000743600480803590602001909190505062000fc1565b604051808273ffffffffffffffffffffffffffffffffffffffff1673ffffffffffffffffffffffffffffffffffffffff16815260200191505060405180910390f35b34156200079157600080fd5b620007bf600480803573ffffffffffffffffffffffffffffffffffffffff1690602001909190505062001001565b005b3415620007cd57600080fd5b620007d76200136e565b604051808273ffffffffffffffffffffffffffffffffffffffff1673ffffffffffffffffffffffffffffffffffffffff16815260200191505060405180910390f35b34156200082557600080fd5b6200082f62001394565b604051808273ffffffffffffffffffffffffffffffffffffffff1673ffffffffffffffffffffffffffffffffffffffff16815260200191505060405180910390f35b34156200087d57600080fd5b62000887620013ba565b6040518082815260200191505060405180910390f35b620008cb600480803573ffffffffffffffffffffffffffffffffffffffff16906020019091905050620009bd565b005b3415620008d957600080fd5b620008e3620013c2565b604051808215151515815260200191505060405180910390f35b34156200090957600080fd5b62000937600480803573ffffffffffffffffffffffffffffffffffffffff16906020019091905050620013ce565b005b34156200094557600080fd5b6200094f62001528565b604051808273ffffffffffffffffffffffffffffffffffffffff1673ffffffffffffffffffffffffffffffffffffffff16815260200191505060405180910390f35b34156200099d57600080fd5b620009a76200154d565b6040518082815260200191505060405180910390f35b600080600073ffffffffffffffffffffffffffffffffffffffff168373ffffffffffffffffffffffffffffffffffffffff1614151515620009fd57600080fd5b62000a076200155b565b151562000a1357600080fd5b34915062000a218262001590565b905062000a3a82600554620015b090919063ffffffff16565b6005819055506000809054906101000a900473ffffffffffffffffffffffffffffffffffffffff1673ffffffffffffffffffffffffffffffffffffffff1663a9059cbb84836000604051602001526040518363ffffffff167c0100000000000000000000000000000000000000000000000000000000028152600401808373ffffffffffffffffffffffffffffffffffffffff1673ffffffffffffffffffffffffffffffffffffffff16815260200182815260200192505050602060405180830381600087803b151562000b0d57600080fd5b6102c65a03f1151562000b1f57600080fd5b50505060405180519050508273ffffffffffffffffffffffffffffffffffffffff163373ffffffffffffffffffffffffffffffffffffffff167f623b3804fa71d67900d064613da8f94b9617215ee90799290593e1745087ad188484604051808381526020018281526020019250505060405180910390a362000ba1620015cf565b505050565b600080905090565b600181565b6000600154421015801562000bc9575060025442105b905090565b60045481565b600e6020528060005260406000206000915090505481565b60025481565b600a60009054906101000a900473ffffffffffffffffffffffffffffffffffffffff1681565b6315c1754081565b60055481565b600760009054906101000a900473ffffffffffffffffffffffffffffffffffffffff1681565b600860009054906101000a900473ffffffffffffffffffffffffffffffffffffffff1681565b6000600454905090565b63030bb96081565b600960009054906101000a900473ffffffffffffffffffffffffffffffffffffffff1681565b60015481565b62a7157081565b600660009054906101000a900473ffffffffffffffffffffffffffffffffffffffff1681565b600a81565b62a7157081565b6303436b3081565b630116791081565b63022cf22081565b600660009054906101000a900473ffffffffffffffffffffffffffffffffffffffff1673ffffffffffffffffffffffffffffffffffffffff163373ffffffffffffffffffffffffffffffffffffffff1614151562000d5e57600080fd5b62000d6862000bb3565b151562000d7457600080fd5b600073ffffffffffffffffffffffffffffffffffffffff168273ffffffffffffffffffffffffffffffffffffffff161415151562000db157600080fd5b60008111151562000dc157600080fd5b6000600e60008473ffffffffffffffffffffffffffffffffffffffff1673ffffffffffffffffffffffffffffffffffffffff16815260200190815260200160002054141562000edb57600a60ff16600d8054905010151562000e2257600080fd5b600d805480600101828162000e38919062001673565b9160005260206000209001600084909190916101000a81548173ffffffffffffffffffffffffffffffffffffffff021916908373ffffffffffffffffffffffffffffffffffffffff160217905550508173ffffffffffffffffffffffffffffffffffffffff167f9d2a1eab91557a277ec725fe26546609d5a33a550c3f3476982ee177252be8f4826040518082815260200191505060405180910390a262000f71565b8173ffffffffffffffffffffffffffffffffffffffff167f8a53360fe59670cc3e4f0c013e90b4fd2f196cbce9dd3d98187d6050f87a19eb600e60008573ffffffffffffffffffffffffffffffffffffffff1673ffffffffffffffffffffffffffffffffffffffff1681526020019081526020016000205483604051808381526020018281526020019250505060405180910390a25b80600e60008473ffffffffffffffffffffffffffffffffffffffff1673ffffffffffffffffffffffffffffffffffffffff168152602001908152602001600020819055505050565b63d98e948081565b600d8181548110151562000fd157fe5b90600052602060002090016000915054906101000a900473ffffffffffffffffffffffffffffffffffffffff1681565b600080600660009054906101000a900473ffffffffffffffffffffffffffffffffffffffff1673ffffffffffffffffffffffffffffffffffffffff163373ffffffffffffffffffffffffffffffffffffffff161415156200106157600080fd5b6200106b62000bb3565b15156200107757600080fd5b600073ffffffffffffffffffffffffffffffffffffffff168373ffffffffffffffffffffffffffffffffffffffff1614151515620010b457600080fd5b6000600e60008573ffffffffffffffffffffffffffffffffffffffff1673ffffffffffffffffffffffffffffffffffffffff16815260200190815260200160002054141515156200110457600080fd5b600e60008473ffffffffffffffffffffffffffffffffffffffff1673ffffffffffffffffffffffffffffffffffffffff16815260200190815260200160002060009055600090505b600d80549050811015620011e1578273ffffffffffffffffffffffffffffffffffffffff16600d828154811015156200118157fe5b906000526020600020900160009054906101000a900473ffffffffffffffffffffffffffffffffffffffff1673ffffffffffffffffffffffffffffffffffffffff161415620011d357809150620011e1565b80806001019150506200114c565b600d6001600d8054905003815481101515620011f957fe5b906000526020600020900160009054906101000a900473ffffffffffffffffffffffffffffffffffffffff16600d838154811015156200123557fe5b906000526020600020900160006101000a81548173ffffffffffffffffffffffffffffffffffffffff021916908373ffffffffffffffffffffffffffffffffffffffff160217905550600d6001600d80549050038154811015156200129657fe5b906000526020600020900160006101000a81549073ffffffffffffffffffffffffffffffffffffffff0219169055600d805480919060019003620012db9190620016a2565b508273ffffffffffffffffffffffffffffffffffffffff167f8db49b57ab5d98b4913c9d04362b8b03a4dc70cf95f9ff93572c8f17e0a635a7600e60008673ffffffffffffffffffffffffffffffffffffffff1673ffffffffffffffffffffffffffffffffffffffff168152602001908152602001600020546040518082815260200191505060405180910390a2505050565b600c60009054906101000a900473ffffffffffffffffffffffffffffffffffffffff1681565b600b60009054906101000a900473ffffffffffffffffffffffffffffffffffffffff1681565b630bf733b081565b60006002544211905090565b600660009054906101000a900473ffffffffffffffffffffffffffffffffffffffff1673ffffffffffffffffffffffffffffffffffffffff163373ffffffffffffffffffffffffffffffffffffffff161415156200142b57600080fd5b600073ffffffffffffffffffffffffffffffffffffffff168173ffffffffffffffffffffffffffffffffffffffff16141515156200146857600080fd5b8073ffffffffffffffffffffffffffffffffffffffff16600660009054906101000a900473ffffffffffffffffffffffffffffffffffffffff1673ffffffffffffffffffffffffffffffffffffffff167f8be0079c531659141344cd1fd0a4f28419497f9722a3daafe3b4186f6b6457e060405160405180910390a380600660006101000a81548173ffffffffffffffffffffffffffffffffffffffff021916908373ffffffffffffffffffffffffffffffffffffffff16021790555050565b6000809054906101000a900473ffffffffffffffffffffffffffffffffffffffff1681565b6301167910630bf733b00381565b600080600060015442101580156200157557506002544211155b915060003414159050818015620015895750805b9250505090565b6000620015a9600454836200163490919063ffffffff16565b9050919050565b6000808284019050838110151515620015c557fe5b8091505092915050565b600360009054906101000a900473ffffffffffffffffffffffffffffffffffffffff1673ffffffffffffffffffffffffffffffffffffffff166108fc349081150290604051600060405180830381858888f1935050505015156200163257600080fd5b565b60008060008414156200164b57600091506200166c565b82840290508284828115156200165d57fe5b041415156200166857fe5b8091505b5092915050565b8154818355818115116200169d578183600052602060002091820191016200169c9190620016d1565b5b505050565b815481835581811511620016cc57818360005260206000209182019101620016cb9190620016d1565b5b505050565b620016f691905b80821115620016f2576000816000905550600101620016d8565b5090565b90565b60006200170562001721565b604051809103906000f08015156200171c57600080fd5b905090565b604051612a6a806200173383390190560060606040526040805190810160405280600381526020017f302e3300000000000000000000000000000000000000000000000000000000008152506000908051906020019062000051929190620005af565b506000600160006101000a81548160ff0219169083151502179055506000600560146101000a81548160ff0219169083151502179055506040805190810160405280600981526020017f546f6b656e20302e31000000000000000000000000000000000000000000000081525060069080519060200190620000d5929190620005af565b50602060405190810160405280600081525060079080519060200190620000fe929190620005af565b5060206040519081016040528060008152506008908051906020019062000127929190620005af565b506000600960006101000a81548160ff021916908360ff1602179055506000600960016101000a81548160ff0219169083151502179055506000600960026101000a81548160ff0219169083151502179055506040805190810160405280601381526020017f53777974636820456e6572677920546f6b656e00000000000000000000000000815250600a9080519060200190620001c7929190620005af565b506040805190810160405280600381526020017f5345540000000000000000000000000000000000000000000000000000000000815250600b908051906020019062000215929190620005af565b506012600c60006101000a81548160ff021916908360ff1602179055506103e8600d5534156200024457600080fd5b600a8054600181600116156101000203166002900480601f016020809104026020016040519081016040528092919081815260200182805460018160011615610100020316600290048015620002de5780601f10620002b257610100808354040283529160200191620002de565b820191906000526020600020905b815481529060010190602001808311620002c057829003601f168201915b5050505050600b8054600181600116156101000203166002900480601f0160208091040260200160405190810160405280929190818152602001828054600181600116156101000203166002900480156200037d5780601f1062000351576101008083540402835291602001916200037d565b820191906000526020600020905b8154815290600101906020018083116200035f57829003601f168201915b5050505050600c60009054906101000a900460ff1633600560006101000a81548173ffffffffffffffffffffffffffffffffffffffff021916908373ffffffffffffffffffffffffffffffffffffffff16021790555060008351118015620003e6575060008251115b1515620003f257600080fd5b82600790805190602001906200040a929190620005af565b50816008908051906020019062000423929190620005af565b5080600960006101000a81548160ff021916908360ff16021790555050505033600560006101000a81548173ffffffffffffffffffffffffffffffffffffffff021916908373ffffffffffffffffffffffffffffffffffffffff160217905550600d54600381905550600d54600260003373ffffffffffffffffffffffffffffffffffffffff1673ffffffffffffffffffffffffffffffffffffffff16815260200190815260200160002081905550600560009054906101000a900473ffffffffffffffffffffffffffffffffffffffff1673ffffffffffffffffffffffffffffffffffffffff1660007fddf252ad1be2c89b69c2b068fc378daa952ba7f163c4a11628f55a4df523b3ef600d546040518082815260200191505060405180910390a37ff4cd1f8571e8d9c97ffcb81558807ab73f9803d54de5da6a0420593c82a4a9f030604051808273ffffffffffffffffffffffffffffffffffffffff1673ffffffffffffffffffffffffffffffffffffffff16815260200191505060405180910390a16200065e565b828054600181600116156101000203166002900490600052602060002090601f016020900481019282601f10620005f257805160ff191683800117855562000623565b8280016001018555821562000623579182015b828111156200062257825182559160200191906001019062000605565b5b50905062000632919062000636565b5090565b6200065b91905b80821115620006575760008160009055506001016200063d565b5090565b90565b6123fc806200066e6000396000f300606060405260043610610154576000357c0100000000000000000000000000000000000000000000000000000000900463ffffffff16806305d2035b1461015957806306fdde0314610186578063095ea7b3146102145780631608f18f1461026e57806318160ddd1461029357806323b872dd146102bc5780632ff2e9dc14610335578063313ce5671461035e57806340c10f191461038d5780635005ba47146103e757806354fd4d501461040c5780635a3b7e421461049a578063661884631461052857806370a08231146105825780637d64bcb4146105cf578063867904b4146105fc5780638da5cb5b1461063e57806395d89b4114610693578063a24835d114610721578063a9059cbb14610763578063bef97c87146107bd578063d0e30db0146107ea578063d73dd6231461080c578063dd62ed3e14610866578063decfe0d4146108d2578063f2fde38b146108ff575b600080fd5b341561016457600080fd5b61016c610938565b604051808215151515815260200191505060405180910390f35b341561019157600080fd5b61019961094b565b6040518080602001828103825283818151815260200191508051906020019080838360005b838110156101d95780820151818401526020810190506101be565b50505050905090810190601f1680156102065780820380516001836020036101000a031916815260200191505b509250505060405180910390f35b341561021f57600080fd5b610254600480803573ffffffffffffffffffffffffffffffffffffffff169060200190919080359060200190919050506109e9565b604051808215151515815260200191505060405180910390f35b341561027957600080fd5b61029160048080351515906020019091905050610adb565b005b341561029e57600080fd5b6102a6610b55565b6040518082815260200191505060405180910390f35b34156102c757600080fd5b61031b600480803573ffffffffffffffffffffffffffffffffffffffff1690602001909190803573ffffffffffffffffffffffffffffffffffffffff16906020019091908035906020019091905050610b5f565b604051808215151515815260200191505060405180910390f35b341561034057600080fd5b610348610b8d565b6040518082815260200191505060405180910390f35b341561036957600080fd5b610371610b93565b604051808260ff1660ff16815260200191505060405180910390f35b341561039857600080fd5b6103cd600480803573ffffffffffffffffffffffffffffffffffffffff16906020019091908035906020019091905050610ba6565b604051808215151515815260200191505060405180910390f35b34156103f257600080fd5b61040a60048080351515906020019091905050610c54565b005b341561041757600080fd5b61041f610ccd565b6040518080602001828103825283818151815260200191508051906020019080838360005b8381101561045f578082015181840152602081019050610444565b50505050905090810190601f16801561048c5780820380516001836020036101000a031916815260200191505b509250505060405180910390f35b34156104a557600080fd5b6104ad610d6b565b6040518080602001828103825283818151815260200191508051906020019080838360005b838110156104ed5780820151818401526020810190506104d2565b50505050905090810190601f16801561051a5780820380516001836020036101000a031916815260200191505b509250505060405180910390f35b341561053357600080fd5b610568600480803573ffffffffffffffffffffffffffffffffffffffff16906020019091908035906020019091905050610e09565b604051808215151515815260200191505060405180910390f35b341561058d57600080fd5b6105b9600480803573ffffffffffffffffffffffffffffffffffffffff1690602001909190505061109a565b6040518082815260200191505060405180910390f35b34156105da57600080fd5b6105e26110e3565b604051808215151515815260200191505060405180910390f35b341561060757600080fd5b61063c600480803573ffffffffffffffffffffffffffffffffffffffff16906020019091908035906020019091905050611174565b005b341561064957600080fd5b61065161139d565b604051808273ffffffffffffffffffffffffffffffffffffffff1673ffffffffffffffffffffffffffffffffffffffff16815260200191505060405180910390f35b341561069e57600080fd5b6106a66113c3565b6040518080602001828103825283818151815260200191508051906020019080838360005b838110156106e65780820151818401526020810190506106cb565b50505050905090810190601f1680156107135780820380516001836020036101000a031916815260200191505b509250505060405180910390f35b341561072c57600080fd5b610761600480803573ffffffffffffffffffffffffffffffffffffffff16906020019091908035906020019091905050611461565b005b341561076e57600080fd5b6107a3600480803573ffffffffffffffffffffffffffffffffffffffff16906020019091908035906020019091905050611661565b604051808215151515815260200191505060405180910390f35b34156107c857600080fd5b6107d061168d565b604051808215151515815260200191505060405180910390f35b6107f26116a0565b604051808215151515815260200191505060405180910390f35b341561081757600080fd5b61084c600480803573ffffffffffffffffffffffffffffffffffffffff16906020019091908035906020019091905050611718565b604051808215151515815260200191505060405180910390f35b341561087157600080fd5b6108bc600480803573ffffffffffffffffffffffffffffffffffffffff1690602001909190803573ffffffffffffffffffffffffffffffffffffffff16906020019091905050611914565b6040518082815260200191505060405180910390f35b34156108dd57600080fd5b6108e561199b565b604051808215151515815260200191505060405180910390f35b341561090a57600080fd5b610936600480803573ffffffffffffffffffffffffffffffffffffffff169060200190919050506119ae565b005b600560149054906101000a900460ff1681565b600a8054600181600116156101000203166002900480601f0160208091040260200160405190810160405280929190818152602001828054600181600116156101000203166002900480156109e15780601f106109b6576101008083540402835291602001916109e1565b820191906000526020600020905b8154815290600101906020018083116109c457829003601f168201915b505050505081565b600081600460003373ffffffffffffffffffffffffffffffffffffffff1673ffffffffffffffffffffffffffffffffffffffff16815260200190815260200160002060008573ffffffffffffffffffffffffffffffffffffffff1673ffffffffffffffffffffffffffffffffffffffff168152602001908152602001600020819055508273ffffffffffffffffffffffffffffffffffffffff163373ffffffffffffffffffffffffffffffffffffffff167f8c5be1e5ebec7d5bd14f71427d1e84f3dd0314c0f7b2291e5b200ac8c7c3b925846040518082815260200191505060405180910390a36001905092915050565b600560009054906101000a900473ffffffffffffffffffffffffffffffffffffffff1673ffffffffffffffffffffffffffffffffffffffff163373ffffffffffffffffffffffffffffffffffffffff16141515610b3757600080fd5b8015600960016101000a81548160ff02191690831515021790555050565b6000600354905090565b6000600960019054906101000a900460ff161515610b7957fe5b610b84848484611b06565b90509392505050565b600d5481565b600c60009054906101000a900460ff1681565b6000600960019054906101000a900460ff161515610bc057fe5b600560009054906101000a900473ffffffffffffffffffffffffffffffffffffffff1673ffffffffffffffffffffffffffffffffffffffff163373ffffffffffffffffffffffffffffffffffffffff16141515610c1c57600080fd5b600560149054906101000a900460ff16151515610c3857600080fd5b610c428383611ec5565b1515610c4a57fe5b6001905092915050565b600560009054906101000a900473ffffffffffffffffffffffffffffffffffffffff1673ffffffffffffffffffffffffffffffffffffffff163373ffffffffffffffffffffffffffffffffffffffff16141515610cb057600080fd5b80600960026101000a81548160ff02191690831515021790555050565b60008054600181600116156101000203166002900480601f016020809104026020016040519081016040528092919081815260200182805460018160011615610100020316600290048015610d635780601f10610d3857610100808354040283529160200191610d63565b820191906000526020600020905b815481529060010190602001808311610d4657829003601f168201915b505050505081565b60068054600181600116156101000203166002900480601f016020809104026020016040519081016040528092919081815260200182805460018160011615610100020316600290048015610e015780601f10610dd657610100808354040283529160200191610e01565b820191906000526020600020905b815481529060010190602001808311610de457829003601f168201915b505050505081565b600080600460003373ffffffffffffffffffffffffffffffffffffffff1673ffffffffffffffffffffffffffffffffffffffff16815260200190815260200160002060008573ffffffffffffffffffffffffffffffffffffffff1673ffffffffffffffffffffffffffffffffffffffff16815260200190815260200160002054905080831115610f1a576000600460003373ffffffffffffffffffffffffffffffffffffffff1673ffffffffffffffffffffffffffffffffffffffff16815260200190815260200160002060008673ffffffffffffffffffffffffffffffffffffffff1673ffffffffffffffffffffffffffffffffffffffff16815260200190815260200160002081905550610fae565b610f2d83826120ad90919063ffffffff16565b600460003373ffffffffffffffffffffffffffffffffffffffff1673ffffffffffffffffffffffffffffffffffffffff16815260200190815260200160002060008673ffffffffffffffffffffffffffffffffffffffff1673ffffffffffffffffffffffffffffffffffffffff168152602001908152602001600020819055505b8373ffffffffffffffffffffffffffffffffffffffff163373ffffffffffffffffffffffffffffffffffffffff167f8c5be1e5ebec7d5bd14f71427d1e84f3dd0314c0f7b2291e5b200ac8c7c3b925600460003373ffffffffffffffffffffffffffffffffffffffff1673ffffffffffffffffffffffffffffffffffffffff16815260200190815260200160002060008873ffffffffffffffffffffffffffffffffffffffff1673ffffffffffffffffffffffffffffffffffffffff168152602001908152602001600020546040518082815260200191505060405180910390a3600191505092915050565b6000600260008373ffffffffffffffffffffffffffffffffffffffff1673ffffffffffffffffffffffffffffffffffffffff168152602001908152602001600020549050919050565b6000600560009054906101000a900473ffffffffffffffffffffffffffffffffffffffff1673ffffffffffffffffffffffffffffffffffffffff163373ffffffffffffffffffffffffffffffffffffffff1614151561114157600080fd5b600560149054906101000a900460ff1615151561115d57600080fd5b6111656120c6565b151561116d57fe5b6001905090565b600960019054906101000a900460ff16151561118c57fe5b600560009054906101000a900473ffffffffffffffffffffffffffffffffffffffff1673ffffffffffffffffffffffffffffffffffffffff163373ffffffffffffffffffffffffffffffffffffffff161415156111e857600080fd5b8160008173ffffffffffffffffffffffffffffffffffffffff161415151561120f57600080fd5b823073ffffffffffffffffffffffffffffffffffffffff168173ffffffffffffffffffffffffffffffffffffffff161415151561124b57600080fd5b6112608360035461218e90919063ffffffff16565b6003819055506112b883600260008773ffffffffffffffffffffffffffffffffffffffff1673ffffffffffffffffffffffffffffffffffffffff1681526020019081526020016000205461218e90919063ffffffff16565b600260008673ffffffffffffffffffffffffffffffffffffffff1673ffffffffffffffffffffffffffffffffffffffff168152602001908152602001600020819055507f9386c90217c323f58030f9dadcbc938f807a940f4ff41cd4cead9562f5da7dc3836040518082815260200191505060405180910390a18373ffffffffffffffffffffffffffffffffffffffff163073ffffffffffffffffffffffffffffffffffffffff167fddf252ad1be2c89b69c2b068fc378daa952ba7f163c4a11628f55a4df523b3ef856040518082815260200191505060405180910390a350505050565b600560009054906101000a900473ffffffffffffffffffffffffffffffffffffffff1681565b600b8054600181600116156101000203166002900480601f0160208091040260200160405190810160405280929190818152602001828054600181600116156101000203166002900480156114595780601f1061142e57610100808354040283529160200191611459565b820191906000526020600020905b81548152906001019060200180831161143c57829003601f168201915b505050505081565b600960019054906101000a900460ff16151561147957fe5b600960029054906101000a900460ff16151561149457600080fd5b8173ffffffffffffffffffffffffffffffffffffffff163373ffffffffffffffffffffffffffffffffffffffff16148061151b5750600560009054906101000a900473ffffffffffffffffffffffffffffffffffffffff1673ffffffffffffffffffffffffffffffffffffffff163373ffffffffffffffffffffffffffffffffffffffff16145b151561152657600080fd5b61157881600260008573ffffffffffffffffffffffffffffffffffffffff1673ffffffffffffffffffffffffffffffffffffffff168152602001908152602001600020546120ad90919063ffffffff16565b600260008473ffffffffffffffffffffffffffffffffffffffff1673ffffffffffffffffffffffffffffffffffffffff168152602001908152602001600020819055506115d0816003546120ad90919063ffffffff16565b6003819055507f9a1b418bc061a5d80270261562e6986a35d995f8051145f277be16103abd3453816040518082815260200191505060405180910390a160008273ffffffffffffffffffffffffffffffffffffffff167fddf252ad1be2c89b69c2b068fc378daa952ba7f163c4a11628f55a4df523b3ef836040518082815260200191505060405180910390a35050565b6000600960019054906101000a900460ff16151561167b57fe5b61168583836121ac565b905092915050565b600960019054906101000a900460ff1681565b6000803414156116b35760009050611715565b34600260003373ffffffffffffffffffffffffffffffffffffffff1673ffffffffffffffffffffffffffffffffffffffff1681526020019081526020016000206000828254019250508190555034600360008282540192505081905550600190505b90565b60006117a982600460003373ffffffffffffffffffffffffffffffffffffffff1673ffffffffffffffffffffffffffffffffffffffff16815260200190815260200160002060008673ffffffffffffffffffffffffffffffffffffffff1673ffffffffffffffffffffffffffffffffffffffff1681526020019081526020016000205461218e90919063ffffffff16565b600460003373ffffffffffffffffffffffffffffffffffffffff1673ffffffffffffffffffffffffffffffffffffffff16815260200190815260200160002060008573ffffffffffffffffffffffffffffffffffffffff1673ffffffffffffffffffffffffffffffffffffffff168152602001908152602001600020819055508273ffffffffffffffffffffffffffffffffffffffff163373ffffffffffffffffffffffffffffffffffffffff167f8c5be1e5ebec7d5bd14f71427d1e84f3dd0314c0f7b2291e5b200ac8c7c3b925600460003373ffffffffffffffffffffffffffffffffffffffff1673ffffffffffffffffffffffffffffffffffffffff16815260200190815260200160002060008773ffffffffffffffffffffffffffffffffffffffff1673ffffffffffffffffffffffffffffffffffffffff168152602001908152602001600020546040518082815260200191505060405180910390a36001905092915050565b6000600460008473ffffffffffffffffffffffffffffffffffffffff1673ffffffffffffffffffffffffffffffffffffffff16815260200190815260200160002060008373ffffffffffffffffffffffffffffffffffffffff1673ffffffffffffffffffffffffffffffffffffffff16815260200190815260200160002054905092915050565b600960029054906101000a900460ff1681565b600560009054906101000a900473ffffffffffffffffffffffffffffffffffffffff1673ffffffffffffffffffffffffffffffffffffffff163373ffffffffffffffffffffffffffffffffffffffff16141515611a0a57600080fd5b600073ffffffffffffffffffffffffffffffffffffffff168173ffffffffffffffffffffffffffffffffffffffff1614151515611a4657600080fd5b8073ffffffffffffffffffffffffffffffffffffffff16600560009054906101000a900473ffffffffffffffffffffffffffffffffffffffff1673ffffffffffffffffffffffffffffffffffffffff167f8be0079c531659141344cd1fd0a4f28419497f9722a3daafe3b4186f6b6457e060405160405180910390a380600560006101000a81548173ffffffffffffffffffffffffffffffffffffffff021916908373ffffffffffffffffffffffffffffffffffffffff16021790555050565b60008073ffffffffffffffffffffffffffffffffffffffff168373ffffffffffffffffffffffffffffffffffffffff1614151515611b4357600080fd5b600260008573ffffffffffffffffffffffffffffffffffffffff1673ffffffffffffffffffffffffffffffffffffffff168152602001908152602001600020548211151515611b9157600080fd5b600460008573ffffffffffffffffffffffffffffffffffffffff1673ffffffffffffffffffffffffffffffffffffffff16815260200190815260200160002060003373ffffffffffffffffffffffffffffffffffffffff1673ffffffffffffffffffffffffffffffffffffffff168152602001908152602001600020548211151515611c1c57600080fd5b611c6e82600260008773ffffffffffffffffffffffffffffffffffffffff1673ffffffffffffffffffffffffffffffffffffffff168152602001908152602001600020546120ad90919063ffffffff16565b600260008673ffffffffffffffffffffffffffffffffffffffff1673ffffffffffffffffffffffffffffffffffffffff16815260200190815260200160002081905550611d0382600260008673ffffffffffffffffffffffffffffffffffffffff1673ffffffffffffffffffffffffffffffffffffffff1681526020019081526020016000205461218e90919063ffffffff16565b600260008573ffffffffffffffffffffffffffffffffffffffff1673ffffffffffffffffffffffffffffffffffffffff16815260200190815260200160002081905550611dd582600460008773ffffffffffffffffffffffffffffffffffffffff1673ffffffffffffffffffffffffffffffffffffffff16815260200190815260200160002060003373ffffffffffffffffffffffffffffffffffffffff1673ffffffffffffffffffffffffffffffffffffffff168152602001908152602001600020546120ad90919063ffffffff16565b600460008673ffffffffffffffffffffffffffffffffffffffff1673ffffffffffffffffffffffffffffffffffffffff16815260200190815260200160002060003373ffffffffffffffffffffffffffffffffffffffff1673ffffffffffffffffffffffffffffffffffffffff168152602001908152602001600020819055508273ffffffffffffffffffffffffffffffffffffffff168473ffffffffffffffffffffffffffffffffffffffff167fddf252ad1be2c89b69c2b068fc378daa952ba7f163c4a11628f55a4df523b3ef846040518082815260200191505060405180910390a3600190509392505050565b6000600560009054906101000a900473ffffffffffffffffffffffffffffffffffffffff1673ffffffffffffffffffffffffffffffffffffffff163373ffffffffffffffffffffffffffffffffffffffff16141515611f2357600080fd5b600560149054906101000a900460ff16151515611f3f57600080fd5b611f548260035461218e90919063ffffffff16565b600381905550611fac82600260008673ffffffffffffffffffffffffffffffffffffffff1673ffffffffffffffffffffffffffffffffffffffff1681526020019081526020016000205461218e90919063ffffffff16565b600260008573ffffffffffffffffffffffffffffffffffffffff1673ffffffffffffffffffffffffffffffffffffffff168152602001908152602001600020819055508273ffffffffffffffffffffffffffffffffffffffff167f0f6798a560793a54c3bcfe86a93cde1e73087d944c0ea20544137d4121396885836040518082815260200191505060405180910390a28273ffffffffffffffffffffffffffffffffffffffff16600073ffffffffffffffffffffffffffffffffffffffff167fddf252ad1be2c89b69c2b068fc378daa952ba7f163c4a11628f55a4df523b3ef846040518082815260200191505060405180910390a36001905092915050565b60008282111515156120bb57fe5b818303905092915050565b6000600560009054906101000a900473ffffffffffffffffffffffffffffffffffffffff1673ffffffffffffffffffffffffffffffffffffffff163373ffffffffffffffffffffffffffffffffffffffff1614151561212457600080fd5b600560149054906101000a900460ff1615151561214057600080fd5b6001600560146101000a81548160ff0219169083151502179055507fae5184fba832cb2b1f702aca6117b8d265eaf03ad33eb133f19dde0f5920fa0860405160405180910390a16001905090565b60008082840190508381101515156121a257fe5b8091505092915050565b60008073ffffffffffffffffffffffffffffffffffffffff168373ffffffffffffffffffffffffffffffffffffffff16141515156121e957600080fd5b600260003373ffffffffffffffffffffffffffffffffffffffff1673ffffffffffffffffffffffffffffffffffffffff16815260200190815260200160002054821115151561223757600080fd5b61228982600260003373ffffffffffffffffffffffffffffffffffffffff1673ffffffffffffffffffffffffffffffffffffffff168152602001908152602001600020546120ad90919063ffffffff16565b600260003373ffffffffffffffffffffffffffffffffffffffff1673ffffffffffffffffffffffffffffffffffffffff1681526020019081526020016000208190555061231e82600260008673ffffffffffffffffffffffffffffffffffffffff1673ffffffffffffffffffffffffffffffffffffffff1681526020019081526020016000205461218e90919063ffffffff16565b600260008573ffffffffffffffffffffffffffffffffffffffff1673ffffffffffffffffffffffffffffffffffffffff168152602001908152602001600020819055508273ffffffffffffffffffffffffffffffffffffffff163373ffffffffffffffffffffffffffffffffffffffff167fddf252ad1be2c89b69c2b068fc378daa952ba7f163c4a11628f55a4df523b3ef846040518082815260200191505060405180910390a360019050929150505600a165627a7a72305820ffd37ad40426cde92545e518587b579413fdaf475054ce98dfc5c46c21d4ecec0029a165627a7a72305820f6ad41fcbf171407b17095c995114b5b4ea98113a766891e033d87ff69ce3788002960606040526040805190810160405280600381526020017f302e3300000000000000000000000000000000000000000000000000000000008152506000908051906020019062000051929190620005af565b506000600160006101000a81548160ff0219169083151502179055506000600560146101000a81548160ff0219169083151502179055506040805190810160405280600981526020017f546f6b656e20302e31000000000000000000000000000000000000000000000081525060069080519060200190620000d5929190620005af565b50602060405190810160405280600081525060079080519060200190620000fe929190620005af565b5060206040519081016040528060008152506008908051906020019062000127929190620005af565b506000600960006101000a81548160ff021916908360ff1602179055506000600960016101000a81548160ff0219169083151502179055506000600960026101000a81548160ff0219169083151502179055506040805190810160405280601381526020017f53777974636820456e6572677920546f6b656e00000000000000000000000000815250600a9080519060200190620001c7929190620005af565b506040805190810160405280600381526020017f5345540000000000000000000000000000000000000000000000000000000000815250600b908051906020019062000215929190620005af565b506012600c60006101000a81548160ff021916908360ff1602179055506103e8600d5534156200024457600080fd5b600a8054600181600116156101000203166002900480601f016020809104026020016040519081016040528092919081815260200182805460018160011615610100020316600290048015620002de5780601f10620002b257610100808354040283529160200191620002de565b820191906000526020600020905b815481529060010190602001808311620002c057829003601f168201915b5050505050600b8054600181600116156101000203166002900480601f0160208091040260200160405190810160405280929190818152602001828054600181600116156101000203166002900480156200037d5780601f1062000351576101008083540402835291602001916200037d565b820191906000526020600020905b8154815290600101906020018083116200035f57829003601f168201915b5050505050600c60009054906101000a900460ff1633600560006101000a81548173ffffffffffffffffffffffffffffffffffffffff021916908373ffffffffffffffffffffffffffffffffffffffff16021790555060008351118015620003e6575060008251115b1515620003f257600080fd5b82600790805190602001906200040a929190620005af565b50816008908051906020019062000423929190620005af565b5080600960006101000a81548160ff021916908360ff16021790555050505033600560006101000a81548173ffffffffffffffffffffffffffffffffffffffff021916908373ffffffffffffffffffffffffffffffffffffffff160217905550600d54600381905550600d54600260003373ffffffffffffffffffffffffffffffffffffffff1673ffffffffffffffffffffffffffffffffffffffff16815260200190815260200160002081905550600560009054906101000a900473ffffffffffffffffffffffffffffffffffffffff1673ffffffffffffffffffffffffffffffffffffffff1660007fddf252ad1be2c89b69c2b068fc378daa952ba7f163c4a11628f55a4df523b3ef600d546040518082815260200191505060405180910390a37ff4cd1f8571e8d9c97ffcb81558807ab73f9803d54de5da6a0420593c82a4a9f030604051808273ffffffffffffffffffffffffffffffffffffffff1673ffffffffffffffffffffffffffffffffffffffff16815260200191505060405180910390a16200065e565b828054600181600116156101000203166002900490600052602060002090601f016020900481019282601f10620005f257805160ff191683800117855562000623565b8280016001018555821562000623579182015b828111156200062257825182559160200191906001019062000605565b5b50905062000632919062000636565b5090565b6200065b91905b80821115620006575760008160009055506001016200063d565b5090565b90565b6123fc806200066e6000396000f300606060405260043610610154576000357c0100000000000000000000000000000000000000000000000000000000900463ffffffff16806305d2035b1461015957806306fdde0314610186578063095ea7b3146102145780631608f18f1461026e57806318160ddd1461029357806323b872dd146102bc5780632ff2e9dc14610335578063313ce5671461035e57806340c10f191461038d5780635005ba47146103e757806354fd4d501461040c5780635a3b7e421461049a578063661884631461052857806370a08231146105825780637d64bcb4146105cf578063867904b4146105fc5780638da5cb5b1461063e57806395d89b4114610693578063a24835d114610721578063a9059cbb14610763578063bef97c87146107bd578063d0e30db0146107ea578063d73dd6231461080c578063dd62ed3e14610866578063decfe0d4146108d2578063f2fde38b146108ff575b600080fd5b341561016457600080fd5b61016c610938565b604051808215151515815260200191505060405180910390f35b341561019157600080fd5b61019961094b565b6040518080602001828103825283818151815260200191508051906020019080838360005b838110156101d95780820151818401526020810190506101be565b50505050905090810190601f1680156102065780820380516001836020036101000a031916815260200191505b509250505060405180910390f35b341561021f57600080fd5b610254600480803573ffffffffffffffffffffffffffffffffffffffff169060200190919080359060200190919050506109e9565b604051808215151515815260200191505060405180910390f35b341561027957600080fd5b61029160048080351515906020019091905050610adb565b005b341561029e57600080fd5b6102a6610b55565b6040518082815260200191505060405180910390f35b34156102c757600080fd5b61031b600480803573ffffffffffffffffffffffffffffffffffffffff1690602001909190803573ffffffffffffffffffffffffffffffffffffffff16906020019091908035906020019091905050610b5f565b604051808215151515815260200191505060405180910390f35b341561034057600080fd5b610348610b8d565b6040518082815260200191505060405180910390f35b341561036957600080fd5b610371610b93565b604051808260ff1660ff16815260200191505060405180910390f35b341561039857600080fd5b6103cd600480803573ffffffffffffffffffffffffffffffffffffffff16906020019091908035906020019091905050610ba6565b604051808215151515815260200191505060405180910390f35b34156103f257600080fd5b61040a60048080351515906020019091905050610c54565b005b341561041757600080fd5b61041f610ccd565b6040518080602001828103825283818151815260200191508051906020019080838360005b8381101561045f578082015181840152602081019050610444565b50505050905090810190601f16801561048c5780820380516001836020036101000a031916815260200191505b509250505060405180910390f35b34156104a557600080fd5b6104ad610d6b565b6040518080602001828103825283818151815260200191508051906020019080838360005b838110156104ed5780820151818401526020810190506104d2565b50505050905090810190601f16801561051a5780820380516001836020036101000a031916815260200191505b509250505060405180910390f35b341561053357600080fd5b610568600480803573ffffffffffffffffffffffffffffffffffffffff16906020019091908035906020019091905050610e09565b604051808215151515815260200191505060405180910390f35b341561058d57600080fd5b6105b9600480803573ffffffffffffffffffffffffffffffffffffffff1690602001909190505061109a565b6040518082815260200191505060405180910390f35b34156105da57600080fd5b6105e26110e3565b604051808215151515815260200191505060405180910390f35b341561060757600080fd5b61063c600480803573ffffffffffffffffffffffffffffffffffffffff16906020019091908035906020019091905050611174565b005b341561064957600080fd5b61065161139d565b604051808273ffffffffffffffffffffffffffffffffffffffff1673ffffffffffffffffffffffffffffffffffffffff16815260200191505060405180910390f35b341561069e57600080fd5b6106a66113c3565b6040518080602001828103825283818151815260200191508051906020019080838360005b838110156106e65780820151818401526020810190506106cb565b50505050905090810190601f1680156107135780820380516001836020036101000a031916815260200191505b509250505060405180910390f35b341561072c57600080fd5b610761600480803573ffffffffffffffffffffffffffffffffffffffff16906020019091908035906020019091905050611461565b005b341561076e57600080fd5b6107a3600480803573ffffffffffffffffffffffffffffffffffffffff16906020019091908035906020019091905050611661565b604051808215151515815260200191505060405180910390f35b34156107c857600080fd5b6107d061168d565b604051808215151515815260200191505060405180910390f35b6107f26116a0565b604051808215151515815260200191505060405180910390f35b341561081757600080fd5b61084c600480803573ffffffffffffffffffffffffffffffffffffffff16906020019091908035906020019091905050611718565b604051808215151515815260200191505060405180910390f35b341561087157600080fd5b6108bc600480803573ffffffffffffffffffffffffffffffffffffffff1690602001909190803573ffffffffffffffffffffffffffffffffffffffff16906020019091905050611914565b6040518082815260200191505060405180910390f35b34156108dd57600080fd5b6108e561199b565b604051808215151515815260200191505060405180910390f35b341561090a57600080fd5b610936600480803573ffffffffffffffffffffffffffffffffffffffff169060200190919050506119ae565b005b600560149054906101000a900460ff1681565b600a8054600181600116156101000203166002900480601f0160208091040260200160405190810160405280929190818152602001828054600181600116156101000203166002900480156109e15780601f106109b6576101008083540402835291602001916109e1565b820191906000526020600020905b8154815290600101906020018083116109c457829003601f168201915b505050505081565b600081600460003373ffffffffffffffffffffffffffffffffffffffff1673ffffffffffffffffffffffffffffffffffffffff16815260200190815260200160002060008573ffffffffffffffffffffffffffffffffffffffff1673ffffffffffffffffffffffffffffffffffffffff168152602001908152602001600020819055508273ffffffffffffffffffffffffffffffffffffffff163373ffffffffffffffffffffffffffffffffffffffff167f8c5be1e5ebec7d5bd14f71427d1e84f3dd0314c0f7b2291e5b200ac8c7c3b925846040518082815260200191505060405180910390a36001905092915050565b600560009054906101000a900473ffffffffffffffffffffffffffffffffffffffff1673ffffffffffffffffffffffffffffffffffffffff163373ffffffffffffffffffffffffffffffffffffffff16141515610b3757600080fd5b8015600960016101000a81548160ff02191690831515021790555050565b6000600354905090565b6000600960019054906101000a900460ff161515610b7957fe5b610b84848484611b06565b90509392505050565b600d5481565b600c60009054906101000a900460ff1681565b6000600960019054906101000a900460ff161515610bc057fe5b600560009054906101000a900473ffffffffffffffffffffffffffffffffffffffff1673ffffffffffffffffffffffffffffffffffffffff163373ffffffffffffffffffffffffffffffffffffffff16141515610c1c57600080fd5b600560149054906101000a900460ff16151515610c3857600080fd5b610c428383611ec5565b1515610c4a57fe5b6001905092915050565b600560009054906101000a900473ffffffffffffffffffffffffffffffffffffffff1673ffffffffffffffffffffffffffffffffffffffff163373ffffffffffffffffffffffffffffffffffffffff16141515610cb057600080fd5b80600960026101000a81548160ff02191690831515021790555050565b60008054600181600116156101000203166002900480601f016020809104026020016040519081016040528092919081815260200182805460018160011615610100020316600290048015610d635780601f10610d3857610100808354040283529160200191610d63565b820191906000526020600020905b815481529060010190602001808311610d4657829003601f168201915b505050505081565b60068054600181600116156101000203166002900480601f016020809104026020016040519081016040528092919081815260200182805460018160011615610100020316600290048015610e015780601f10610dd657610100808354040283529160200191610e01565b820191906000526020600020905b815481529060010190602001808311610de457829003601f168201915b505050505081565b600080600460003373ffffffffffffffffffffffffffffffffffffffff1673ffffffffffffffffffffffffffffffffffffffff16815260200190815260200160002060008573ffffffffffffffffffffffffffffffffffffffff1673ffffffffffffffffffffffffffffffffffffffff16815260200190815260200160002054905080831115610f1a576000600460003373ffffffffffffffffffffffffffffffffffffffff1673ffffffffffffffffffffffffffffffffffffffff16815260200190815260200160002060008673ffffffffffffffffffffffffffffffffffffffff1673ffffffffffffffffffffffffffffffffffffffff16815260200190815260200160002081905550610fae565b610f2d83826120ad90919063ffffffff16565b600460003373ffffffffffffffffffffffffffffffffffffffff1673ffffffffffffffffffffffffffffffffffffffff16815260200190815260200160002060008673ffffffffffffffffffffffffffffffffffffffff1673ffffffffffffffffffffffffffffffffffffffff168152602001908152602001600020819055505b8373ffffffffffffffffffffffffffffffffffffffff163373ffffffffffffffffffffffffffffffffffffffff167f8c5be1e5ebec7d5bd14f71427d1e84f3dd0314c0f7b2291e5b200ac8c7c3b925600460003373ffffffffffffffffffffffffffffffffffffffff1673ffffffffffffffffffffffffffffffffffffffff16815260200190815260200160002060008873ffffffffffffffffffffffffffffffffffffffff1673ffffffffffffffffffffffffffffffffffffffff168152602001908152602001600020546040518082815260200191505060405180910390a3600191505092915050565b6000600260008373ffffffffffffffffffffffffffffffffffffffff1673ffffffffffffffffffffffffffffffffffffffff168152602001908152602001600020549050919050565b6000600560009054906101000a900473ffffffffffffffffffffffffffffffffffffffff1673ffffffffffffffffffffffffffffffffffffffff163373ffffffffffffffffffffffffffffffffffffffff1614151561114157600080fd5b600560149054906101000a900460ff1615151561115d57600080fd5b6111656120c6565b151561116d57fe5b6001905090565b600960019054906101000a900460ff16151561118c57fe5b600560009054906101000a900473ffffffffffffffffffffffffffffffffffffffff1673ffffffffffffffffffffffffffffffffffffffff163373ffffffffffffffffffffffffffffffffffffffff161415156111e857600080fd5b8160008173ffffffffffffffffffffffffffffffffffffffff161415151561120f57600080fd5b823073ffffffffffffffffffffffffffffffffffffffff168173ffffffffffffffffffffffffffffffffffffffff161415151561124b57600080fd5b6112608360035461218e90919063ffffffff16565b6003819055506112b883600260008773ffffffffffffffffffffffffffffffffffffffff1673ffffffffffffffffffffffffffffffffffffffff1681526020019081526020016000205461218e90919063ffffffff16565b600260008673ffffffffffffffffffffffffffffffffffffffff1673ffffffffffffffffffffffffffffffffffffffff168152602001908152602001600020819055507f9386c90217c323f58030f9dadcbc938f807a940f4ff41cd4cead9562f5da7dc3836040518082815260200191505060405180910390a18373ffffffffffffffffffffffffffffffffffffffff163073ffffffffffffffffffffffffffffffffffffffff167fddf252ad1be2c89b69c2b068fc378daa952ba7f163c4a11628f55a4df523b3ef856040518082815260200191505060405180910390a350505050565b600560009054906101000a900473ffffffffffffffffffffffffffffffffffffffff1681565b600b8054600181600116156101000203166002900480601f0160208091040260200160405190810160405280929190818152602001828054600181600116156101000203166002900480156114595780601f1061142e57610100808354040283529160200191611459565b820191906000526020600020905b81548152906001019060200180831161143c57829003601f168201915b505050505081565b600960019054906101000a900460ff16151561147957fe5b600960029054906101000a900460ff16151561149457600080fd5b8173ffffffffffffffffffffffffffffffffffffffff163373ffffffffffffffffffffffffffffffffffffffff16148061151b5750600560009054906101000a900473ffffffffffffffffffffffffffffffffffffffff1673ffffffffffffffffffffffffffffffffffffffff163373ffffffffffffffffffffffffffffffffffffffff16145b151561152657600080fd5b61157881600260008573ffffffffffffffffffffffffffffffffffffffff1673ffffffffffffffffffffffffffffffffffffffff168152602001908152602001600020546120ad90919063ffffffff16565b600260008473ffffffffffffffffffffffffffffffffffffffff1673ffffffffffffffffffffffffffffffffffffffff168152602001908152602001600020819055506115d0816003546120ad90919063ffffffff16565b6003819055507f9a1b418bc061a5d80270261562e6986a35d995f8051145f277be16103abd3453816040518082815260200191505060405180910390a160008273ffffffffffffffffffffffffffffffffffffffff167fddf252ad1be2c89b69c2b068fc378daa952ba7f163c4a11628f55a4df523b3ef836040518082815260200191505060405180910390a35050565b6000600960019054906101000a900460ff16151561167b57fe5b61168583836121ac565b905092915050565b600960019054906101000a900460ff1681565b6000803414156116b35760009050611715565b34600260003373ffffffffffffffffffffffffffffffffffffffff1673ffffffffffffffffffffffffffffffffffffffff1681526020019081526020016000206000828254019250508190555034600360008282540192505081905550600190505b90565b60006117a982600460003373ffffffffffffffffffffffffffffffffffffffff1673ffffffffffffffffffffffffffffffffffffffff16815260200190815260200160002060008673ffffffffffffffffffffffffffffffffffffffff1673ffffffffffffffffffffffffffffffffffffffff1681526020019081526020016000205461218e90919063ffffffff16565b600460003373ffffffffffffffffffffffffffffffffffffffff1673ffffffffffffffffffffffffffffffffffffffff16815260200190815260200160002060008573ffffffffffffffffffffffffffffffffffffffff1673ffffffffffffffffffffffffffffffffffffffff168152602001908152602001600020819055508273ffffffffffffffffffffffffffffffffffffffff163373ffffffffffffffffffffffffffffffffffffffff167f8c5be1e5ebec7d5bd14f71427d1e84f3dd0314c0f7b2291e5b200ac8c7c3b925600460003373ffffffffffffffffffffffffffffffffffffffff1673ffffffffffffffffffffffffffffffffffffffff16815260200190815260200160002060008773ffffffffffffffffffffffffffffffffffffffff1673ffffffffffffffffffffffffffffffffffffffff168152602001908152602001600020546040518082815260200191505060405180910390a36001905092915050565b6000600460008473ffffffffffffffffffffffffffffffffffffffff1673ffffffffffffffffffffffffffffffffffffffff16815260200190815260200160002060008373ffffffffffffffffffffffffffffffffffffffff1673ffffffffffffffffffffffffffffffffffffffff16815260200190815260200160002054905092915050565b600960029054906101000a900460ff1681565b600560009054906101000a900473ffffffffffffffffffffffffffffffffffffffff1673ffffffffffffffffffffffffffffffffffffffff163373ffffffffffffffffffffffffffffffffffffffff16141515611a0a57600080fd5b600073ffffffffffffffffffffffffffffffffffffffff168173ffffffffffffffffffffffffffffffffffffffff1614151515611a4657600080fd5b8073ffffffffffffffffffffffffffffffffffffffff16600560009054906101000a900473ffffffffffffffffffffffffffffffffffffffff1673ffffffffffffffffffffffffffffffffffffffff167f8be0079c531659141344cd1fd0a4f28419497f9722a3daafe3b4186f6b6457e060405160405180910390a380600560006101000a81548173ffffffffffffffffffffffffffffffffffffffff021916908373ffffffffffffffffffffffffffffffffffffffff16021790555050565b60008073ffffffffffffffffffffffffffffffffffffffff168373ffffffffffffffffffffffffffffffffffffffff1614151515611b4357600080fd5b600260008573ffffffffffffffffffffffffffffffffffffffff1673ffffffffffffffffffffffffffffffffffffffff168152602001908152602001600020548211151515611b9157600080fd5b600460008573ffffffffffffffffffffffffffffffffffffffff1673ffffffffffffffffffffffffffffffffffffffff16815260200190815260200160002060003373ffffffffffffffffffffffffffffffffffffffff1673ffffffffffffffffffffffffffffffffffffffff168152602001908152602001600020548211151515611c1c57600080fd5b611c6e82600260008773ffffffffffffffffffffffffffffffffffffffff1673ffffffffffffffffffffffffffffffffffffffff168152602001908152602001600020546120ad90919063ffffffff16565b600260008673ffffffffffffffffffffffffffffffffffffffff1673ffffffffffffffffffffffffffffffffffffffff16815260200190815260200160002081905550611d0382600260008673ffffffffffffffffffffffffffffffffffffffff1673ffffffffffffffffffffffffffffffffffffffff1681526020019081526020016000205461218e90919063ffffffff16565b600260008573ffffffffffffffffffffffffffffffffffffffff1673ffffffffffffffffffffffffffffffffffffffff16815260200190815260200160002081905550611dd582600460008773ffffffffffffffffffffffffffffffffffffffff1673ffffffffffffffffffffffffffffffffffffffff16815260200190815260200160002060003373ffffffffffffffffffffffffffffffffffffffff1673ffffffffffffffffffffffffffffffffffffffff168152602001908152602001600020546120ad90919063ffffffff16565b600460008673ffffffffffffffffffffffffffffffffffffffff1673ffffffffffffffffffffffffffffffffffffffff16815260200190815260200160002060003373ffffffffffffffffffffffffffffffffffffffff1673ffffffffffffffffffffffffffffffffffffffff168152602001908152602001600020819055508273ffffffffffffffffffffffffffffffffffffffff168473ffffffffffffffffffffffffffffffffffffffff167fddf252ad1be2c89b69c2b068fc378daa952ba7f163c4a11628f55a4df523b3ef846040518082815260200191505060405180910390a3600190509392505050565b6000600560009054906101000a900473ffffffffffffffffffffffffffffffffffffffff1673ffffffffffffffffffffffffffffffffffffffff163373ffffffffffffffffffffffffffffffffffffffff16141515611f2357600080fd5b600560149054906101000a900460ff16151515611f3f57600080fd5b611f548260035461218e90919063ffffffff16565b600381905550611fac82600260008673ffffffffffffffffffffffffffffffffffffffff1673ffffffffffffffffffffffffffffffffffffffff1681526020019081526020016000205461218e90919063ffffffff16565b600260008573ffffffffffffffffffffffffffffffffffffffff1673ffffffffffffffffffffffffffffffffffffffff168152602001908152602001600020819055508273ffffffffffffffffffffffffffffffffffffffff167f0f6798a560793a54c3bcfe86a93cde1e73087d944c0ea20544137d4121396885836040518082815260200191505060405180910390a28273ffffffffffffffffffffffffffffffffffffffff16600073ffffffffffffffffffffffffffffffffffffffff167fddf252ad1be2c89b69c2b068fc378daa952ba7f163c4a11628f55a4df523b3ef846040518082815260200191505060405180910390a36001905092915050565b60008282111515156120bb57fe5b818303905092915050565b6000600560009054906101000a900473ffffffffffffffffffffffffffffffffffffffff1673ffffffffffffffffffffffffffffffffffffffff163373ffffffffffffffffffffffffffffffffffffffff1614151561212457600080fd5b600560149054906101000a900460ff1615151561214057600080fd5b6001600560146101000a81548160ff0219169083151502179055507fae5184fba832cb2b1f702aca6117b8d265eaf03ad33eb133f19dde0f5920fa0860405160405180910390a16001905090565b60008082840190508381101515156121a257fe5b8091505092915050565b60008073ffffffffffffffffffffffffffffffffffffffff168373ffffffffffffffffffffffffffffffffffffffff16141515156121e957600080fd5b600260003373ffffffffffffffffffffffffffffffffffffffff1673ffffffffffffffffffffffffffffffffffffffff16815260200190815260200160002054821115151561223757600080fd5b61228982600260003373ffffffffffffffffffffffffffffffffffffffff1673ffffffffffffffffffffffffffffffffffffffff168152602001908152602001600020546120ad90919063ffffffff16565b600260003373ffffffffffffffffffffffffffffffffffffffff1673ffffffffffffffffffffffffffffffffffffffff1681526020019081526020016000208190555061231e82600260008673ffffffffffffffffffffffffffffffffffffffff1673ffffffffffffffffffffffffffffffffffffffff1681526020019081526020016000205461218e90919063ffffffff16565b600260008573ffffffffffffffffffffffffffffffffffffffff1673ffffffffffffffffffffffffffffffffffffffff168152602001908152602001600020819055508273ffffffffffffffffffffffffffffffffffffffff163373ffffffffffffffffffffffffffffffffffffffff167fddf252ad1be2c89b69c2b068fc378daa952ba7f163c4a11628f55a4df523b3ef846040518082815260200191505060405180910390a360019050929150505600a165627a7a72305820ffd37ad40426cde92545e518587b579413fdaf475054ce98dfc5c46c21d4ecec0029",
  "source": "pragma solidity ^0.4.18;\n\nimport \"zeppelin-solidity/contracts/math/SafeMath.sol\";\nimport \"./crowdsale/Crowdsale.sol\";\nimport \"zeppelin-solidity/contracts/ownership/Ownable.sol\";\nimport \"./SwytchToken.sol\";\n\n\ncontract SwytchCrowdsale is Crowdsale, Ownable {\n\n    // =================================================================================================================\n    //                                      Constants\n    // =================================================================================================================\n    // Max amount of known addresses of which will get SET by 'Grant' method.\n    //\n    // grantees addresses will be Swytch wallets addresses.\n    // these wallets will contain SET tokens that will be used for 2 purposes only -\n    // 1. SET tokens against raised fiat money\n    // 2. SET tokens for presale bonus.\n    // we set the value to 10 (and not to 2) because we want to allow some flexibility for cases like fiat money that is raised close to the crowdsale.\n    // we limit the value to 10 (and not larger) to limit the run time of the function that process the grantees array.\n    uint8 public constant MAX_TOKEN_GRANTEES = 10;\n\n    // SET to ETH base rate\n    uint256 public constant EXCHANGE_RATE = 1;\n\n    /// Total SET minted = 3,650,000,000 or 3.65e9\n    uint256 public constant FIXED_TOTAL_SUPPLY = 3.65e9;\n\n    /// Total TEG Allocation is 10% of 3,650,000,000 = 365,000,000 or 3.65e8\n    uint256 public constant TGE_TOTAL_ALLOCATION = 3.65e8;\n\n    ///  Total Sale get 55% of of 365.000,000 = 200,750,000\n    uint256 public constant TOTAL_SALE_ALLOCATION = 200750000;\n\n    /// Pre-sale  get 5% of of 365.000,000 = 18,250,000\n    uint256 public constant PRIVATE_SALE_ALLOCATION = 18250000;\n\n    /// Public Sale get 50% of of 365.000,000 = 182,500,000\n    uint256 public constant CROWDSALE_ALLOCATION = (TOTAL_SALE_ALLOCATION - PRIVATE_SALE_ALLOCATION);\n\n    /// Core Team gets 15% of 365.000,000 = 54,750,000\n    uint256 public constant CORE_TEAM_ALLOCATION = 54750000;\n\n    /// TCF gets 14% of 365.000,000 = 51,100,000\n    uint256 public constant TOKEN_COMMONS_ALLOCATION = 51100000;\n\n    /// Bounty get 10% of of 365.000,000 = 36,500,000\n    uint256 public constant PARTNERSHIPS_ALLOCATION = 36500000;\n\n    /// Future Reserves get 3% of of 365.000,000 = 10,950,000\n    uint256 public constant FUTURE_RESERVE_ALLOCATION = 10950000;\n\n    /// Bounty get 3% of of 365.000,000 = 10,950,000\n    uint256 public constant BOUNTY_ALLOCATION = 10950000;\n\n    // =================================================================================================================\n    //                                      Modifiers\n    // =================================================================================================================\n\n    /**\n     * @dev Throws if called not during the crowdsale time frame\n     */\n    modifier onlyWhileSale() {\n        require(isActive());\n        _;\n    }\n\n    // =================================================================================================================\n    //                                      Members\n    // =================================================================================================================\n\n\n    address public wallet;\n    address public teamWallet; // 15% of allocations\n    address public foundationWallet; // 14% of allocations\n    address public partnershipWallet; // 10% of allocations\n    address public bountyWallet; // 3% of allocations\n    address public reserveWallet; // 3% of allocations\n\n    // Funds collected outside the crowdsale in wei\n    //Grantees - private sale and early investors\n    address[] public presaleGranteesMapKeys;\n    mapping(address => uint256) public presaleGranteesMap;  //address=>wei token amount\n\n    // =================================================================================================================\n    //                                      Events\n    // =================================================================================================================\n    event GrantAdded(address indexed _grantee, uint256 _amount);\n\n    event GrantUpdated(address indexed _grantee, uint256 _oldAmount, uint256 _newAmount);\n\n    event GrantDeleted(address indexed _grantee, uint256 _hadAmount);\n\n    // =================================================================================================================\n    //                                      Constructors\n    // =================================================================================================================\n\n    function SwytchCrowdsale(\n        uint256 _startTime,\n        uint256 _endTime,\n        address _wallet,\n        address _teamWallet,\n        address _foundationWallet,\n        address _bountyWallet,\n        address _reserveWallet,\n        address _partnershipWallet,\n        SwytchToken _swytchToken)\n    public\n    Crowdsale(_startTime, _endTime, EXCHANGE_RATE, _wallet) {\n        require(_wallet != address(0));\n        require(_teamWallet != address(0));\n        require(_foundationWallet != address(0));\n        require(_bountyWallet != address(0));\n        require(_reserveWallet != address(0));\n        require(_partnershipWallet != address(0));\n        require(_swytchToken != address(0));\n\n        wallet = _wallet;\n        teamWallet = _teamWallet;\n        foundationWallet = _foundationWallet;\n        bountyWallet = _bountyWallet;\n        reserveWallet = _reserveWallet;\n        partnershipWallet = _partnershipWallet;\n\n        token = _swytchToken;\n        owner = msg.sender;\n    }\n\n    // =================================================================================================================\n    //                                      Impl Crowdsale\n    // =================================================================================================================\n\n    // @return the rate in SET per 1 ETH according to the time of the tx and the SET pricing program.\n    // @Override\n    function getRate() public view returns (uint256) {\n        return rate;\n    }\n\n    // =================================================================================================================\n    //                                      Impl FinalizableCrowdsale\n    // =================================================================================================================\n\n    // this needs work still\n    function finalization() internal onlyOwner {\n\n        // granting bonuses for the pre crowdsale grantees:\n        for (uint256 i = 0; i < presaleGranteesMapKeys.length; i++) {\n            var _grantee = presaleGranteesMapKeys[i];\n            var _allocation = presaleGranteesMap[presaleGranteesMapKeys[i]];\n            SwytchToken(token).transfer(_grantee, _allocation);\n        }\n\n\n        // 15% of the total number of SET tokens will be allocated to the team\n        var _teamAllocation = CORE_TEAM_ALLOCATION;\n        SwytchToken(token).transfer(teamWallet, _teamAllocation);\n\n        // 14% of the total number of SET tokens will be allocated the TCF foundation,\n        var _tcfAllocation = TOKEN_COMMONS_ALLOCATION;\n        SwytchToken(token).transfer(foundationWallet, _tcfAllocation);\n\n        var _bountyAllocation = BOUNTY_ALLOCATION;\n        // 3% of the total number of SET tokens will be allocated to professional fees and Bounties\n        SwytchToken(token).transfer(bountyWallet, _bountyAllocation);\n\n        // 35% of the total number of SET tokens will be allocated to SWYTCH,\n        // and as a reserve for the company to be used for future strategic plans for the created ecosystem\n        var _reserveAllocation = FUTURE_RESERVE_ALLOCATION;\n        SwytchToken(token).transfer(reserveWallet, _reserveAllocation);\n\n        // Re-enable transfers after the token sale.\n        SwytchToken(token).disableTransfers(false);\n\n        // Keep destroy function disabled after the token sale.\n        SwytchToken(token).setDestroyEnabled(false);\n\n        // transfer token ownership to crowdsale owner\n        SwytchToken(token).transferOwnership(owner);\n    }\n\n    // =================================================================================================================\n    //                                      Public Methods\n    // =================================================================================================================\n    // @return the total funds collected in wei(ETH and none ETH).\n    function getTotalFundsRaised() public view returns (uint256) {\n        return 0x0;\n    }\n\n    // @return true if the crowdsale is active, hence users can buy tokens\n    function isActive() public view returns (bool) {\n        return now >= startTime && now < endTime;\n    }\n\n    // =================================================================================================================\n    //                                      External Methods\n    // =================================================================================================================\n    // @dev Adds/Updates address and token allocation for token grants.\n    // Granted tokens are allocated to non-ether, presale, buyers.\n    // @param _grantee address The address of the token grantee.\n    // @param _value uint256 The value of the grant in wei token.\n    function addUpdateGrantee(address _grantee, uint256 _value) external onlyOwner onlyWhileSale {\n        require(_grantee != address(0));\n        require(_value > 0);\n\n        // Adding new key if not present:\n        if (presaleGranteesMap[_grantee] == 0) {\n            require(presaleGranteesMapKeys.length < MAX_TOKEN_GRANTEES);\n            presaleGranteesMapKeys.push(_grantee);\n            GrantAdded(_grantee, _value);\n        }\n        else {\n            GrantUpdated(_grantee, presaleGranteesMap[_grantee], _value);\n        }\n\n        presaleGranteesMap[_grantee] = _value;\n    }\n\n    // @dev deletes entries from the grants list.\n    // @param _grantee address The address of the token grantee.\n    function deleteGrantee(address _grantee) external onlyOwner onlyWhileSale {\n        require(_grantee != address(0));\n        require(presaleGranteesMap[_grantee] != 0);\n\n        //delete from the map:\n        delete presaleGranteesMap[_grantee];\n\n        //delete from the array (keys):\n        uint256 index;\n        for (uint256 i = 0; i < presaleGranteesMapKeys.length; i++) {\n            if (presaleGranteesMapKeys[i] == _grantee) {\n                index = i;\n                break;\n            }\n        }\n        presaleGranteesMapKeys[index] = presaleGranteesMapKeys[presaleGranteesMapKeys.length - 1];\n        delete presaleGranteesMapKeys[presaleGranteesMapKeys.length - 1];\n        presaleGranteesMapKeys.length--;\n\n        GrantDeleted(_grantee, presaleGranteesMap[_grantee]);\n    }\n\n}\n",
  "sourcePath": "/Users/ghostmac/WebstormProjects/swytch/swytch-smart-contracts/contracts/SwytchCrowdsale.sol",
  "compiler": {
    "name": "solc",
    "version": "0.4.18+commit.9cf6e910.Emscripten.clang"
  },
  "schemaVersion": "1.0.1",
  "updatedAt": "2018-03-08T18:44:12.875Z"
}